:020000040800F2
:10000000A04300202902000841340008692B0008A1
:100010003D34000805070008F14100080000000019
:10002000000000000000000000000000CF360008C3
:10003000BB0700080000000043340008D136000868
:10004000430200084302000843020008430200087C
:10005000430200084302000843020008430200086C
:100060004302000843020008BD07000843020008DD
:10007000430200084302000843020008430200084C
:10008000430200084302000843020008430200083C
:10009000430200084302000843020008C7070008A3
:1000A000F13700082138000811380008013800082D
:1000B000430200084302000843020008430200080C
:1000C00043020008430200084302000843020008FC
:1000D00043020008E141000843020008430200080F
:1000E00043020008430200084302000839380008B0
:1000F00071380008613800085138000843020008D0
:1001000043020008430200084302000843020008BB
:1001100043020008430200084302000843020008AB
:10012000430200084302000843020008430200089B
:10013000430200084302000843020008430200088B
:10014000430200084302000843020008430200087B
:10015000430200084302000843020008430200086B
:10016000430200084302000843020008430200085B
:100170004302000843020008430200080000000098
:10018000430200084302000800F002F800F03CF8C7
:100190000AA090E8000C82448344AAF10107DA45E2
:1001A00001D100F031F8AFF2090EBAE80F0013F0F8
:1001B000010F18BFFB1A43F00103184774590000E0
:1001C00094590000103A24BF78C878C1FAD8520771
:1001D00024BF30C830C144BF04680C6070470000C1
:1001E0000023002400250026103A28BF78C1FBD840
:1001F000520728BF30C148BF0B6070471FB505F0DC
:1002000008FC1FBD10B510BD00F0E2F81146FFF765
:10021000F5FF04F005FD00F000F903B4FFF7F2FF6D
:1002200003BC00F003F90000094880470948004773
:10023000FEE7FEE7FEE7FEE7FEE7FEE7FEE7FEE796
:10024000FEE7FEE704480549054A064B70470000F3
:100250008D37000889010008A0030020A04300207A
:10026000A0230020A023002053EA020C00F06980A4
:100270002DE9F04B4FF00006002B1FBFB3FA83F5BA
:1002800003FA05F424FA05F65E4012BF1643B2FAEB
:1002900082F502FA05F4C5F120051EBF22FA05FC1D
:1002A00044EA0C04203556EA044C4FEA144418BFC3
:1002B000641C4FF000084FF00009904271EB030CF2
:1002C00039D3002919BFB1FA81F701FA07F6B0FA5C
:1002D00080F700FA07F6C7F120071EBF20FA07FCD7
:1002E00046EA0C062037B6FBF4FCA7EB0507103FE7
:1002F00007F01F0BCBF120060CFA0BFB2CFA06F6CD
:1003000044BFB3460026202FA4BF5E464FF0000B2B
:100310005BEA060C08BF4FF0010B19EB0B09ABFBB6
:10032000027C48EB0608C01B06FB02CC0BFB03CC8F
:1003300071EB0C01C1E70B46024641464846BDE859
:10034000F08B13B54FF000004FF00001AFF30080C9
:10035000BDE81C4070474FF0000200B513469446BC
:100360009646203922BFA0E80C50A0E80C50B1F10D
:100370002001BFF4F7AF090728BFA0E80C5048BF21
:100380000CC05DF804EB890028BF40F8042B08BFBF
:10039000704748BF20F8022B11F0804F18BF00F8BB
:1003A000012B704770477047704710B500F008F890
:1003B000006810BD10B5044600F002F8046010BDDE
:1003C000004870473C030020004870473C03002071
:1003D0007546FFF7F9FFAE4605006946534620F023
:1003E0000700854618B020B5FFF72CFFBDE8204078
:1003F0004FF000064FF000074FF000084FF0000BE1
:1004000021F00701AC46ACE8C009ACE8C009ACE893
:10041000C009ACE8C0098D46704710B50446AFF37B
:1004200000802046BDE81040FFF7F7BE01491820C4
:10043000ABBEFEE7260002007047000010B50122A7
:100440001021024800F07EFB10BD000000000240B9
:1004500010B500221021024800F074FB10BD00000E
:10046000000002407047000010B50122114602480A
:1004700000F068FB10BD00000004024010B500222F
:100480000121024800F05EFB10BD000000040240A4
:10049000704710B5044603E04FF47A7000F006F898
:1004A000201EA4F101018CB2F6D110BD70B5034637
:1004B00000BF00BF0020002200BF4FF0E02675699A
:1004C000A82603FB06F44FF0E026B16910E04FF0D8
:1004D000E026B06988420BD0884202D20E1A32441C
:1004E00002E02E1A0E4432440146A24200D300E03C
:1004F000EDE700BF70BD10B50024FFF7B3FFFFF7B5
:10050000C7FF04F055FA044304F0E6FA044320461A
:1005100010BD00002DE9FC4105460E46174600209F
:1005200000900190FFF794FF922000F0D1F806228E
:100530006946122000F0ACF8FFF780FF9DF801003B
:10054000000200B29DF8001040EA010400EE104ADB
:10055000B8EEC00A4C48D0ED000A20EE200A86ED25
:10056000000A9DF80300000200B29DF8021040EA64
:10057000010400EE104AB8EEC00A4348D0ED000A6C
:1005800020EE200A86ED010A9DF80500000200B267
:100590009DF8041040EA010400EE104AB8EEC00ACB
:1005A0003948D0ED000A20EE200A86ED020AFFF756
:1005B00065FF08226946002000F06AF8FFF754FF43
:1005C0009DF800000F2838D19DF80300000200B20A
:1005D0009DF8021040EA010400EE104AB8EEC00A8D
:1005E0002A48D0ED000A20EE200A85ED000A9DF889
:1005F0000500000200B29DF8041040EA010400EE7C
:10060000104AB8EEC00A2148D0ED000A20EE200AB8
:1006100085ED010A9DF80700000200B29DF8061062
:1006200040EA010400EE104AB8EEC00A1748D0EDC7
:10063000000A20EE200A85ED020AFFF709FFA2203A
:1006400000F046F802226946222000F021F8FFF768
:10065000F5FE9DF80000C0009DF8011040EA61140D
:10066000B4F5806F02DBA4F5006004B200EE104A1E
:10067000F8EEC00AB4EE001AB3EE070A00EE810AE3
:1006800087ED000ABDE8FC81780000207C00002096
:1006900070B506460C46154646F0800000F018F886
:1006A00006E0552000F014F82070641C681EC5B2E6
:1006B000002DF6D170BD70B504460D4644F08000A3
:1006C00000F006F8552000F003F8287070BD000017
:1006D00001B582B04FF47A70012301AA02A90090FB
:1006E000024800F019FF9DF804000EBDE400002050
:1006F00070B505460C462846FFF7EAFF2046FFF78F
:10070000E7FF70BD00BFFEE701680A4BCAB2103AAE
:10071000A3FB02321209084B9B5CC365032A04D970
:100720006FF30901091D816502E06FF3090181651D
:10073000806D7047ABAAAAAA3E5A00080146002065
:100740008A6A8B69002B0FD0B3F5005F1DD08AB386
:10075000012A30D0022A2ED0032A04D1C96A11F00E
:10076000807F00D0012070471AB1012A07D0022AE9
:10077000F9D1C96A11F0807FF5D001207047C96AAC
:10078000B1F1C07FFAD1012070475AB1012A0BD0D4
:10079000022A07D0032AF7D1C96AB1F1C07FF3D189
:1007A0000120704701207047C96A11F0807FFAD09C
:1007B00001207047FFE701207047704710B51020F7
:1007C00000F0A6F810BD10B5202000F0A1F810BD73
:1007D000704790F83510022903D08021416501202F
:1007E0007047052180F835100068016821F001018B
:1007F00001600020704700002DE9F041044600F040
:10080000A9F90546DCB1002684F83460022084F89A
:1008100035002068016821F001010160206800684E
:1008200010F0010F13D000F095F9401B052809D9ED
:1008300020206065032084F83500BDE8F0810120A8
:10084000BDE8F0812068006810F0010FEBD121684D
:100850000868234A1040A3686268D4F810C01A439D
:10086000E36843EA0C031A4363691A43A3691A4312
:10087000E3691A43236A1A431043626A042A03D1C4
:10088000236BE26A1A43104308602068406920F035
:100890000701606A40EA0105012704280ED1A06A19
:1008A0000543E06A50B12046FFF748FF30B14020D1
:1008B000606584F835700120BDE8F08120684561ED
:1008C0002046FFF721FF94F85C103F2202FA01F165
:1008D0008160666584F835700020BDE8F081000015
:1008E0003F8010F070B5044600F034F90546B4F1CD
:1008F000FF3F02D004480078044400F02BF9401B6D
:10090000A042FAD370BD0000A40000207047000090
:1009100010B504490A68024202D00860FFF7F6FFEA
:1009200010BD0000143C01402DE9F84F0022DFF813
:100930000082DFF80092DFF800A24FF0030E0F27CD
:10094000012303FA02F50B682B40AB427DD1D1F8AD
:1009500004C0BCF1020F02D0BCF1120F12D14FEA59
:10096000D20C00EB8C0CDCF820605407E40E07FA84
:1009700004FB26EA0B06D1F810B00BFA04F434435A
:10098000CCF8204006684FEA420C0EFA0CF4A6435D
:1009900091F804B00BF0030B0BFA0CFB4BEA0606C4
:1009A00006604E68012E05D0022E03D0112E01D014
:1009B000122E11D18668A643D1F80CB00BFA0CFBAD
:1009C0004BEA06068660466826EA05050E79C6F3F8
:1009D0000016964035434560C56825EA04048D68D5
:1009E00005FA0CFC4CEA040CC0F80CC0D1F804C0A9
:1009F0001CF0805F7DD0D8F800C04CF4804CC8F863
:100A000000C0D8F800C00CF4804CCDF800C022F033
:100A1000030C0CF1804404F59834D4F808C8950709
:100A20002D0F07FA05F62CEA0606A0F1804CBCF55E
:100A3000003C64D0A0F1804CBCF5013C62D0A0F138
:100A4000804CBCF5023C60D000E052E0A0F1804C4C
:100A5000BCF5033C5CD0A0F1804CBCF5043C5AD002
:100A6000A0F1804CBCF5053C58D0A0F1804CBCF501
:100A7000063C56D0A0F1804CBCF5073C54D04FF05A
:100A8000080C0CFA05FC4CEA060CC4F808C8D9F8A6
:100A900000C02CEA030C4C6814F4803F01D04CEAEF
:100AA000030CC9F800C0254CD4F800C02CEA030C94
:100AB0004D6815F4003F01D04CEA030CC4F800C0A7
:100AC000DAF800C02CEA030C4C6814F4801F01D043
:100AD0004CEA030CCAF800C0194CD4F800C02CEA48
:100AE000030C4D6815F4001F01D04CEA030CC4F848
:100AF00000C0521C102AFFF423AFBDE8F88F4FF05E
:100B0000000CBEE74FF0010CBBE74FF0020CB8E75A
:100B10004FF0030CB5E74FF0040CB2E74FF0050CB3
:100B2000AFE74FF0060CACE74FF0070CA9E7000069
:100B300044380240003C0140083C0140043C014074
:100B40000C3C0140002A01D0816170470904816199
:100B5000704700000148806870470000A400002032
:100B6000024881680278114481607047A400002027
:100B700010B50B48016841F400710160016841F44F
:100B800080610160016841F480710160032000F020
:100B900091F8002000F006F800F026F8002010BDC3
:100BA000003C024070B504460D4D4FF47A71287830
:100BB000B1FBF0F00B490968B1FBF0F000F0A8FDC3
:100BC00008B1012070BD102C07D200222146501E12
:100BD00000F03CF86C60002070BD012070BD00008A
:100BE000A40000200800002008B500BF00200090ED
:100BF0000E48006840F480400C49086008460068D0
:100C000000F48040009000BF00BF00BF00200090B3
:100C1000081F006840F08050091F086008460068FF
:100C200000F08050009000BF00BF08BD4438024073
:100C300000280ADB00F01F01012202FA01F140093D
:100C4000800000F1E020C0F80011704710B4184B8C
:100C50001B68C3F30223C3F1070CBCF1040F01D9D5
:100C60004FF0040C1C1D072C01D2002300E0DB1EFA
:100C7000012404FA0CFCACF1010C0CEA01019940CE
:100C800004FA03F35B1E1A401143002806DB00F14F
:100C9000E020090180F8001410BC704700F00F003C
:100CA00000F1E020090180F8141D10BC704700001D
:100CB0000CED00E000F00700064A11684FF6FF0354
:100CC000194041EA002040F0FD7040F08060106063
:100CD000704700000CED00E02DE9F04704460D469A
:100CE000002C13D0DFF85091D9F80000EFB200F0DB
:100CF0000F00A8420DD289F80070D9F8000000F06A
:100D00000F00A84205D00120BDE8F0870120BDE812
:100D1000F0872068494E10F0020F14D010F0040F35
:100D200003D0306840F4E0503060207810F0080FB5
:100D300003D0306840F4604030603068A16820F033
:100D4000F00008433060207810F0010F3ED060685A
:100D50003B49012808D002280DD003280BD0096890
:100D600011F0020F28D00AE0096811F4003F06D103
:100D70000120BDE8F087096811F0007F19D03168C3
:100D800021F0030108433060FFF7E4FE804630683D
:100D9000616800F00C00B0EB810F17D041F2883A87
:100DA000FFF7D8FEA0EB0800504508D90320BDE8A6
:100DB000F0870120BDE8F0870120BDE8F0873068AA
:100DC000616800F00C00B0EB810FE9D1D9F80000A8
:100DD00000F00F00A8420AD989F80070D9F8000085
:100DE00000F00F00A84202D00120BDE8F087207873
:100DF00010F0040F05D03068E16820F4E05008439B
:100E00003060207810F0080F06D03068216920F497
:100E1000604040EAC100306000F03EF83168094AA5
:100E2000C1F30311515CC840074908600020FFF777
:100E3000B9FE0020BDE8F087003C024008380240BF
:100E400000380240265A00080800002001480068C7
:100E5000704700000800002000B5FFF7F7FF0449C5
:100E60000968044AC1F38221515CC84000BD0000FA
:100E700008380240365A000800B5FFF7E7FF04497A
:100E80000968044AC1F34231515CC84000BD00000A
:100E900008380240365A000810B51748006810F0AC
:100EA0000C01164816D0164B042912D0082911D16E
:100EB000144C216801F03F02216811F4800F0AD020
:100EC0002068C0F38810A0FB03010023FFF7CCF9D2
:100ED00009E0184610BD21680023C1F38811A1FB69
:100EE0000001FFF7C1F92168C1F30141491C490024
:100EF000B0FBF1F010BD0000083802400024F400FF
:100F0000001BB700043802402DE9F84F0446002CBE
:100F100010D02078FA4D10F0010F64D0F948016824
:100F200001F00C0104290DD0006800F00C00082825
:100F300003D011E00120BDE8F88FF348006810F4F9
:100F4000800F09D0286810F4003F4CD0606800285A
:100F500049D10120BDE8F88F6068B0F5803F14D01A
:100F6000B0F5A02F16D0286820F4803028602868BB
:100F700020F480202860606810B3FFF7EBFD064680
:100F8000286810F4003F0ED02DE0286840F480302F
:100F90002860F0E7286840F480202860286840F442
:100FA00080302860E7E7FFF7D5FD801B642802D971
:100FB0000320BDE8F88F286810F4003FF3D012E05A
:100FC000FFF7C8FD0646286810F4003F0BD0FFF776
:100FD000C1FD801B642802D90320BDE8F88F286872
:100FE00010F4003FF3D12078C84F10F0020F4FF0FB
:100FF000000856D0C348016811F00C0F15D00068E6
:1010000000F00C00082804D1BF48006810F4800FDD
:101010000BD0E06878B301203860FFF79BFD0646EF
:10102000286810F0020F12D01DE0286810F0020F9F
:1010300005D0E068012802D00120BDE8F88F2868BB
:10104000216920F0F80040EAC100286029E0FFF79C
:1010500081FD801B022802D90320BDE8F88F286893
:1010600010F0020FF3D02868216920F0F80040EA60
:10107000C100286015E0FFE7C7F80080FFF76AFDB0
:101080000646286810F0020F0BD0FFF763FD801BA7
:10109000022802D90320BDE8F88F286810F0020F5B
:1010A000F3D1207810F0080F33D09948DFF864921C
:1010B0006169B9B101210160FFF74CFD0646D9F81D
:1010C000000010F0020F24D1FFF744FD801B02281E
:1010D00002D90320BDE8F88FD9F8000010F0020F04
:1010E000F2D016E0C0F80080FFF734FD0646D9F8CC
:1010F000000010F0020F0CD0FFF72CFD801B02281F
:1011000002D90320BDE8F88FD9F8000010F0020FD3
:10111000F2D1207810F0040F73D04FF00009DFF8FF
:10112000F8A1DAF8000010F0805F0CD1DAF80000C6
:1011300040F08050CAF80000DAF8000000F080505B
:1011400000904FF00109DFF8D4B1DBF8000010F493
:10115000807F1AD1DBF8000040F48070CBF80000EB
:10116000FFF7F8FC0646DBF8000010F4807F0CD196
:10117000FFF7F0FC801B022802D90320BDE8F88F9E
:10118000DBF8000010F4807FF2D0A068DFF890B1A7
:10119000012818D005281DD0DBF8000020F0010040
:1011A000CBF80000DBF8000020F00400CBF80000D2
:1011B000A06838B3FFF7CEFC0646DBF8000010F05D
:1011C000020F14D03CE0DBF8000040F00100CBF847
:1011D0000000EDE7DBF8000040F00400CBF8000071
:1011E000DBF8000040F00100CBF80000E0E7FFF77B
:1011F000B1FC811B41F28830814204D90320BDE853
:10120000F88F26E005E0DBF8000010F0020FEED0CA
:1012100016E0FFF79FFC0646DBF8000010F0020F17
:101220000ED0FFF797FC811B41F28830814202D932
:101230000320BDE8F88FDBF8000010F0020FF0D1BA
:10124000B9F1010F05D1DAF8000020F08050CAF89A
:101250000000A069E8B32B49096801F00C010829D6
:101260006BD0022810D0C7F86080FFF773FC0446EB
:10127000286810F0007F5ED0FFF76CFC001B02288E
:1012800055D90320BDE8F88FC7F86080FFF762FCEE
:101290000646286810F0007F0BD0FFF75BFC801B30
:1012A000022802D90320BDE8F88F286810F0007FDB
:1012B000F3D1216AE069A26A0843616A4FF0FF3303
:1012C000890103EB520241EA0241084394F82C10D1
:1012D00000E030E040EA01610B480160012038661F
:1012E000FFF738FC0446286810F0007F23D1FFF791
:1012F00031FC001B022815D90320BDE8F88F1CE043
:1013000000380240083802400438024000004742DA
:10131000800E47427438024040380240007000405E
:1013200070380240286810F0007FE0D003E02868A1
:1013300010F0007FA0D10020DFE70120DDE770B5CD
:101340000446002C05D00025A56294F8510010B188
:1013500006E0012070BD84F85050204600F030F8BF
:10136000022084F851002068016821F040010160EA
:10137000A168606822690843E16811430843616914
:101380000843218B01F400710843E1690843216A95
:101390000843A16A084321680860A069042101EAA2
:1013A0001040616A0843216848602068C16921F4DF
:1013B0000061C1616565012084F85100002070BDA5
:1013C00010B586B00446142101A8FEF7C4FF4B49AE
:1013D000206888427ED100BF002000904848006805
:1013E00040F48050464908600846006800F4805088
:1013F000009000BF00BF00BF00200090404814389C
:10140000006840F002003E49143908600846006850
:1014100000F00200009000BF00BF00BF002000905D
:101420000846006840F0010008600846006800F0C7
:101430000100009000BF00BF182001900220029020
:1014400000200390032004900520059001A92D4859
:10145000FFF76AFA8020019002200290002003909A
:10146000032004900520059001A92748FFF75CFAA6
:101470002648274908604FF0C06048600021244892
:101480008160C1604FF4806101610021416181612F
:10149000C1614FF44031016200214162FFF7ACF9B4
:1014A00008B1FFF795F900BF1948E064846300BFF5
:1014B00016481830174908604FF0C0604860402156
:1014C000144881600021C1604FF4806101610021F6
:1014D000416100E010E08161C1614FF400310162BF
:1014E00000214162FFF788F908B1FFF771F900BFE9
:1014F0000848A064846300BF06B010BD00300140FE
:1015000044380240000402400000024040640240AF
:101510003C0100209C0100202DE9F84F04460A9E62
:101520008A4693461F4601254FF0000894F8500064
:1015300001280ED0012084F85000FFF70BFB8146F4
:1015400094F85100616801280ED0B1F5827F07D16F
:1015500002E00220BDE8F88FA16809B9042803D091
:101560004FF0020800F0CBB8BAF1000F1DD0BBF16C
:10157000000F1AD0380018D094F85100042802D077
:10158000052084F8510000206065C4F838B0E78772
:10159000A787C4F830A0E786A78620646064206827
:1015A000016811F0400F03D006E04FF00108A6E0FB
:1015B000016841F040010160E068B0F5006F05D0BE
:1015C0006068002848D0012F46D07EE0606808B1EE
:1015D000012F3AD1206B21680088C860206B801CE5
:1015E0002063E08E401EE0862FE02068816811F0C5
:1015F000020F0DD0E18E59B1012D09D1216B09885F
:10160000C160206B801C2063E08E401EE0860025B8
:101610002068816811F0010F0BD0E18F49B1C068DB
:10162000A16B0880A06B801CA063E08F401EE08748
:101630000125FFF78FFAA0EB0900B04205D3B6F100
:10164000FF3F02D04FF0030859E0E08E0028CCD1D4
:10165000E08F0028C9D13EE0206B21680078087334
:10166000206B401C2063E08E401EE0862DE0206849
:10167000816811F0020F0DD0E18E59B1012D09D111
:10168000216B09780173206B401C2063E08E401EA3
:10169000E08600252068816811F0010F0BD0E18FF2
:1016A00049B1C068A16B0870A06B401CA063E08FBB
:1016B000401EE0870125FFF74DFAA0EB0900B0427C
:1016C00002D3B6F1FF3F11D186B1E08E0028CED112
:1016D000E08F0028CBD14A463146204601F072FF08
:1016E00038B14FF001082020606508E04FF0030892
:1016F00005E0A06818B92068C168806800900120E2
:1017000084F85100002084F850004046BDE8F88F6E
:10171000401EB0F1807F01D3012070474FF0E021DF
:101720004861044AF0201070002088610720086199
:101730000020704723ED00E07047704790F83C2090
:10174000012A2CD0012280F83C20CA680023D1F85D
:1017500008C022F4407242EA0C02D1F804C022F41C
:10176000806242EA0C02D1F800C022F4006242EA30
:101770000C02D1F810C022F4805242EA0C02D1F8D7
:1017800014C022F4005242EA0C02C96922F48042D9
:1017900011430268516480F83C30002070470220F9
:1017A000704730B490F83C20012A1ED0012480F804
:1017B0003C40022280F83D200268D2F804C09368C1
:1017C0002CF0700C0D6845EA0C0C23F0800349687E
:1017D0001943C2F804C00268916080F83D400021BE
:1017E00080F83C1030BC0020704730BC02207047AD
:1017F00010B50446002C03D094F83D0010B107E06A
:10180000012010BD002084F83C00204600F00CF8B8
:10181000022084F83D00211D206802F031F80120EB
:1018200084F83D00002010BD10B586B00446142198
:1018300001A8FEF790FD61492068884230D100BFC1
:10184000002000905E48006840F001005C4908609C
:101850000846006800F00100009000BF00BF0022B1
:1018600011461820FFF7F2F91820FFF7E1F90022DE
:1018700011461920FFF7EAF91920FFF7D9F90022DC
:1018800011461A20FFF7E2F91A20FFF7D1F90022DA
:1018900011461B20FFF7DAF91B20FFF7C9F98BE08F
:1018A0004849206888426BD100BF0020009044481E
:1018B000006840F00200424908600846006800F0F5
:1018C0000200009000BF00BF00BF002000903C4815
:1018D0001438006840F480703949143908600846AB
:1018E000006800F48070009000BF00BF00BF0020BF
:1018F00000900846006840F0040008600846006850
:1019000000F00400009000BF00BF402001900220C2
:1019100002900390002004900320059001A92A481A
:10192000FFF702F84020019002200290039000206F
:1019300004900320059001A92448FEF7F5FF00223A
:1019400011462B20FFF782F92B20FFF771F90022B7
:1019500011462C20FFF77AF92C20FFF769F90022B5
:1019600011462D20FFF772F92D20FFF761F90022B3
:1019700011462E20FFF76AF92E20FFF759F91BE0D8
:1019800013492068884217D100BF002000900C48FE
:10199000006840F400300A4908600846006800F416
:1019A0000030009000BF00BF002211461920FFF751
:1019B0004DF91920FFF73CF906B010BD00000140B9
:1019C0004438024000040140002002400008024068
:1019D00000440140022180F83D1001688A6802F04D
:1019E0000702062A03D00A6842F001020A600121B8
:1019F00080F83D100020704770B5044694F83C0014
:101A0000012818D0012584F83C50022084F83D00BC
:101A10002068826822F0770222F47F4282600868A0
:101A2000502832D00EDC20284DD006DC00284AD0C9
:101A300010284DD147E0022070BD302843D0402807
:101A400046D136E060282AD0702806D0B0F5805FF5
:101A50003ED0B0F5005F3BD10BE0CB684A688968A7
:101A6000206801F082FF2068816841F07701816081
:101A70002EE0CB684A688968206801F076FF20680C
:101A8000816841F48041816022E0CA684968206829
:101A900002F05AF85021206801F072FF18E0CA687D
:101AA0004968206802F0AAF86021206801F068FF08
:101AB0000EE0CA684968206802F046F840212068B4
:101AC00001F05EFF04E022680146104601F058FF75
:101AD00084F83D50002084F83C0070BD70B5054688
:101AE000FE49286888427DD1287F01287BD1FC48A7
:101AF0000078012802D002281ED11EE00021F948FA
:101B000000F06FFEF849086000BFF6480068006A00
:101B10004FF6F5710840F34909680862F14800681A
:101B2000006A40F00200EF490968086200BFEC4813
:101B30000078401CEA49087087E00021E94800F07D
:101B400050FEE94948600021E64800F030FCE648D4
:101B50004068E5490968884206D9E3484068E24997
:101B60000968401AE1490860E0480068B0F5167F4E
:101B700003D20020DE4908700BE0DC480068B0F5B5
:101B8000487F03D20120DA49087002E00220D849D8
:101B90000870D74804780A20B4FBF0F100FB11402C
:101BA0003030D449C8700A20B4FBF0F4B4FBF0F133
:101BB00000FB11403030CF4988700A20B4FBF0F4AC
:101BC000B4FBF0F100FB11403030CA4948700A20E4
:101BD000B4FBF0F4B4FBF0F100FB11403030C54928
:101BE000087001E0B4E031E00A20B4FBF0F44FF4F7
:101BF00080731022C0A1C64800F047FF4FF48073E5
:101C00000422BC49C24800F040FF4FF48073022216
:101C1000C0A1BF4800F039FF00BFB2480068006AA9
:101C20004FF6F5710840AF4909680862AD48006891
:101C3000006AAC490968086200BF0021A94800F0A9
:101C400087FB0120A649087000BF00BF287F02283B
:101C50007ED1A3484078012802D002281ED11EE080
:101C60000421A04800F0BDFDAB49086000BF9D48BD
:101C70000068006A4FF65F7108409A490968086277
:101C800098480068006A40F0200096490968086298
:101C900000BF93484078401C914948708DE0042172
:101CA000904800F09EFD9C49486004218D4800F05A
:101CB0007EFB9948406898490968884206D9964849
:101CC000406895490968401A94490860934800683B
:101CD000B0F5167F03D200209149087002E0012080
:101CE0008F4908708E48007801280BD100208D495B
:101CF00008804FF4FA60488000208B4908804FF438
:101D0000FA604880864804780A20B4FBF0F100FBB2
:101D1000114030307749C8700A20B4FBF0F4B4FBAE
:101D2000F0F100FB11403030724988700A20B4FB9A
:101D3000F0F4B4FBF0F100FB114030306D49487015
:101D40000A20B4FBF0F4B4FBF0F100FB114000E01A
:101D500034E03030674908700A20B4FBF0F44FF4E7
:101D60008073142271A16A4800F08FFE4FF48073D3
:101D700004226049664800F088FE4FF48073022216
:101D800064A1634800F081FE00BF56480068006A05
:101D90004FF65F710840534909680862514800686E
:101DA000006A50490968086200BF04214D4800F0EC
:101DB000CFFA01204A49487000BF00BF6049286837
:101DC00088427DD1287F01287BD15E480078012898
:101DD00002D002281ED11EE000215B4800F001FD68
:101DE0005A49086000BF58480068006A4FF6F5710C
:101DF000084055490968086253480068006A40F085
:101E0000020051490968086200BF4E480078401C32
:101E10004C490870E7E000214B4800F0E2FC4B49D8
:101E200048600021484800F0C2FA484840684749E5
:101E30000968884206D94548406844490968401AFB
:101E4000434908604248006840F63401884203D99B
:101E500008463F49086008E03D480068B0F5617FEA
:101E600003D24FF461703A4908602E48008838491F
:101E70000968884203D2364800882A4908802948E0
:101E8000408833490968884203D931480088254988
:101E900048802448008823494988411A21484088BD
:101EA0002B4A1268101A4FF4FA725043B0FBF1F04B
:101EB00000F214502749088002F0FCFF254801E099
:101EC00014E191E004880A20B4FBF0F100FB11401A
:101ED00030300849C8700A203EE000000018004079
:101EE00002000020BC020020240000203800002056
:101EF000500000200F000020202020202020202043
:101F00002020202020202020202020202000000031
:101F1000FC0200200D0A00002C00002040000020E0
:101F200051000020440000204800002020202020F4
:101F300020202020202020202020202020202000C1
:101F400000040140000000203C020020140000209A
:101F5000340000204E000020B4FBF0F4B4FBF0F19C
:101F600000FB114030308E4988700A20B4FBF0F439
:101F7000B4FBF0F100FB11403030894948700A2071
:101F8000B4FBF0F4B4FBF0F100FB114030308449B5
:101F900008700A20B4FBF0F44FF4807304228148E7
:101FA00000F073FD4FF480730222AFF298017D4878
:101FB00000F06BFD00BF7C480068006A4FF6F571C9
:101FC000084079490968086277480068006A7649DC
:101FD0000968086200BF0021734800F0B9F90120C8
:101FE0007249087000BF00BF287F02287ED16F4869
:101FF0004078012802D002281ED11EE004216A4840
:1020000000F0EFFB6A49086000BF67480068006A9B
:102010004FF65F71084064490968086262480068C9
:10202000006A40F0200060490968086200BF5F480C
:102030004078401C5D494870AFE004215A4800F0E8
:10204000D0FB5B4948600421574800F0B0F958487C
:10205000406857490968884206D95548406854493C
:102060000968401A534908605248006840F6340134
:10207000884203D908464F49086008E04D48006887
:10208000B0F5617F03D24FF461704A4908604A4855
:10209000008848490968884203D246480088464972
:1020A00008804548408843490968884203D9414827
:1020B000008841494880404800883F494988411A82
:1020C0003D4840883B4A1268101A4FF4FA72504358
:1020D000B0FBF1F000F214503849088002F0EAFE3B
:1020E000364804880A20B4FBF0F100E056E000FB1B
:1020F000114030302A49C8700A20B4FBF0F4B4FB18
:10210000F0F100FB11403030254988700A20B4FB03
:10211000F0F4B4FBF0F100FB11403030204948707E
:102120000A20B4FBF0F4B4FBF0F100FB11403030B6
:102130001B4908700A20B4FBF0F44FF480730A22A4
:10214000AFF24421174800F0A0FC4FF48073042242
:102150001349144800F099FC4FF480730222AFF247
:102160004C21104800F091FC00BF0F480068006A45
:102170004FF65F7108400C49096808620A48006818
:10218000006A09490968086200BF0421064800F096
:10219000DFF801200549487000BF00BF70BD000096
:1021A0000F000020FC0200203C0200200000002064
:1021B0001C00002038000020480000204C000020B7
:1021C00070B504460D4694F83C00012821D0012644
:1021D00084F83C60022084F83D00E2B1042A2BD050
:1021E000082A3BD0EB686A682968206801F056FD30
:1021F0002068C16921F44061C1612068C169AA6891
:1022000041EA0221C16184F83D60002084F83C006D
:1022100070BD022070BDEB686A682968206801F013
:10222000A6FC2068816921F00C0181612068816928
:10223000AA6811438161E6E7EB686A68296820684B
:1022400001F0EEFC2068816921F440618161206821
:102250008169AA6841EA02218161D4E7EB686A6872
:102260002968206801F0FCFC2068C16921F00C019C
:10227000C1612068C169AA681143C161C3E710B593
:102280000446002C03D094F83D0010B107E0012073
:1022900010BD002084F83C00204600F00DF802201C
:1022A00084F83D00211D206801F0EAFA012084F83D
:1022B0003D00002010BD000010B586B0044614217A
:1022C00001A8FEF748F81F492068884237D100BFAF
:1022D000002000901C48006840F040001A49086047
:1022E0000846006800F04000009000BF00BF00BF3B
:1022F0000020009014481038006840F00200124995
:10230000103908600846006800F00200009000BF25
:1023100000BF4FF440400190022002900390002043
:1023200004900920059001A90848FEF7FDFA002253
:1023300011462B20FEF78AFC2B20FEF779FC06B015
:1023400010BD000000180040403802400004024068
:1023500010B504460029226806D0042909D00829AE
:102360000CD00C2913D10EE0D06840F00200D060F0
:102370000DE0D06840F00400D06008E0D06840F084
:102380000800D06003E0D06840F01000D060012267
:10239000206801F0DBFA2068816801F00701062956
:1023A00003D0016841F001010160002010BD10B5AB
:1023B00004460029226806D0042909D008290CD037
:1023C0000C2913D10EE0D06820F00200D0600DE09F
:1023D000D06820F00400D06008E0D06820F0080049
:1023E000D06003E0D06820F01000D06000222068A8
:1023F00001F0ACFA2068016A41F21112114207D1D2
:10240000016A9210114203D1016821F001010160BB
:10241000002010BD70B50446206801694FF000052A
:1024200011F0020F17D0C16811F0020F13D0E91E8E
:102430000161012020772068806910F0030F03D02C
:102440002046FFF74BFB05E0204600F01BF9204635
:1024500000F0A4F925772068016911F0040F18D065
:10246000C16811F0040F14D06FF004010161022063
:1024700020772068806910F4407F03D02046FFF762
:102480002DFB05E0204600F0FDF8204600F086F91F
:1024900025772068016911F0080F18D0C16811F084
:1024A000080F14D06FF00801016104202077206824
:1024B000C06910F0030F03D02046FFF70FFB05E0C3
:1024C000204600F0DFF8204600F068F92577206804
:1024D000016911F0100F18D0C16811F0100F14D05D
:1024E0006FF010010161082020772068C06910F4A6
:1024F000407F03D02046FFF7F1FA05E0204600F0C8
:10250000C1F8204600F04AF925772068016911F0EA
:10251000010F09D0C16811F0010F05D06FF0010162
:102520000161204600F05CF92068016911F0800F1C
:1025300009D0C16811F0800F05D06FF080010161F2
:102540002046FFF7F9F82068016911F0400F09D023
:10255000C16811F0400F05D06FF0400101612046C5
:1025600000F055F92068016911F0200F0BD0C16807
:1025700011F0200F07D06FF0200101612046BDE867
:102580007040FFF7DAB870BD10B586B0044614216C
:1025900001A8FDF7E0FE3449206888421ED100BF43
:1025A000002000903148006840F010002F4908607A
:1025B0000846006800F01000009000BF00BF4FF414
:1025C000D44001900220029000200390049001204A
:1025D000059001A92648FEF7A7F943E025492068A0
:1025E00088421DD100BF002000902048006840F4C0
:1025F00080701E4908600846006800F480700090F2
:1026000000BF00BF802001900220029003900020B4
:1026100004900320059001A91748FEF785F921E0F1
:102620001649206888421DD100BF002000900F4845
:10263000006840F020000D4908600846006800F07E
:102640002000009000BF00BF4020019002200290B7
:1026500001200390022004900320059001A908485E
:10266000FEF762F906B010BD0000014030380240AC
:1026700000100240000401400020024000440140DC
:1026800000140240704770B504460D4694F83C00B3
:1026900001280DD0012684F83C60022084F83D001A
:1026A00042B1042A1AD0082A2DD00C2A53D13EE078
:1026B000022070BD2946206801F06AF9206881690E
:1026C00041F0080181612068816921F00401816184
:1026D000206881692A69114381613CE029462068AC
:1026E00001F08EF92068816941F400618161206800
:1026F000816921F480618161206881692A6941EAE8
:102700000221816127E02946206801F0B5F920689F
:10271000C16941F00801C1612068C16921F004016B
:10272000C1612068C1692A691143C16113E029466A
:10273000206801F0DDF92068C16941F40061C161E0
:102740002068C16921F48061C1612068C1692A697A
:1027500041EA0221C16184F83D60002084F83C0018
:1027600070BD10B50446002C03D094F83D0010B1A4
:1027700007E0012010BD002084F83C00204600F056
:102780000CF8022084F83D00211D206801F078F843
:10279000012084F83D00002010BD7047704710B53F
:1027A00004460122206801F0D1F82168A1F180409F
:1027B000B0F5803004D0A1F18040B0F5823003D173
:1027C000486C40F4004048642068816801F00701CB
:1027D000062903D0016841F001010160002010BD0D
:1027E000704702460020002908D0042909D0082992
:1027F0000AD00C2901D11068006C70471068406B3A
:1028000070471068806B70471068C06B70477047E6
:102810007047000010B5044622681068D1685269FC
:1028200000F00F03002B0AD110F0200F07D011F099
:10283000200F04D02046BDE8104001F072BA002BF2
:102840006BD002F0010301F4907C53EA0C0364D0D6
:1028500010F0010F06D011F4807F03D0E36B43F03A
:102860000103E36310F0040F06D012F0010F03D050
:10287000E36B43F00203E36310F0020F06D012F0A3
:10288000010F03D0E36B43F00403E36310F0080F80
:1028900006D012F0010F03D0E26B42F00802E263AF
:1028A000E26B002A2ED010F0200F05D011F0200F7F
:1028B00002D0204601F035FA20684069C0F380104C
:1028C000E16B11F0080F00D108B3204601F00EFAB9
:1028D0002068416911F0400F15D0416921F0400195
:1028E0004161606B58B118490165606BFDF771FF7C
:1028F000002807D0606B016DBDE8104008472046F6
:10290000FFF786FF10BD2046FFF782FF10BD20466F
:10291000FFF77EFF0020E06310BD10F0800F07D0AE
:1029200011F0800F04D02046BDE8104001F0E8BB54
:1029300010F0400FF0D011F0400FEDD02046BDE870
:10294000104001F0E1B90000DD3C000870B504461C
:10295000002C04D094F83900002510B106E00120C5
:1029600070BD84F83850204600F022F8242084F806
:1029700039002068C16821F40051C160204601F08F
:102980001FFA2068016921F49041016120684169C2
:1029900021F02A0141612068C16841F40051C16001
:1029A000E563202084F8390084F83A00002070BDE7
:1029B00010B586B00446142101A8FDF7CCFC2E49C1
:1029C0002068884255D100BF002000902B48006845
:1029D00040F01000294908600846006800F0100027
:1029E000009000BF00BF00BF0020009023481438B3
:1029F000006840F002002149143908600846006868
:102A000000F00200009000BF00BF00BF0020009057
:102A10000846006840F0010008600846006800F0C1
:102A20000100009000BF00BF8020019002200290B2
:102A300001200390032004900720059001A910486D
:102A4000FDF772FF4FF40070019002200290012008
:102A50000390032004900720059001A90948FDF781
:102A600063FF002211462520FEF7F0F82520FEF72F
:102A7000DFF806B010BD00000010014044380240ED
:102A8000000402400000024070472DE9F84304466C
:102A90000D4691461E4694F83900202802D00220A7
:102AA000BDE8F8834DB3B9F1000F26D094F8380093
:102AB000012825D0012084F838000027E763212071
:102AC00084F83900FEF746F88046A4F82490A4F86C
:102AD0002690E08CA0B3E08C401EE084A068B0F5A6
:102AE000805F10D04346002280212046009601F0EE
:102AF0003AFBF0B10320BDE8F8830120BDE8F8837C
:102B00000220BDE8F883434600228021204600963B
:102B100001F029FB10B10320BDE8F8832888216863
:102B2000C0F308004860206908B16D1C05E0AD1CC9
:102B300003E0216815F8010B4860E08C0028CAD139
:102B40004346002240212046009601F00CFB10B1C4
:102B50000320BDE8F883202084F8390084F8387019
:102B60000020BDE8F883704700BFFEE708B500BF4E
:102B7000002000900E48006840F480000C49086076
:102B80000846006800F48000009000BF00BF0022EB
:102B900005213A20FEF75AF83A20FEF749F80022BC
:102BA00011463B20FEF752F83B20FEF741F808BDE6
:102BB0003038024000B587B0142102A8FDF7CBFBE6
:102BC00000BF002001905148006840F002004F49CA
:102BD00008600846006800F00200019000BF00BFD6
:102BE00000BF002001900846006840F00100086026
:102BF0000846006800F00100019000BF00BF00BF60
:102C0000002001900846006840F480700860084683
:102C1000006800F48070019000BF00BF00BF00207A
:102C200001900846006840F080000860084600688F
:102C300000F08000019000BF00BF00BF00200190A5
:102C40000846006840F0040008600846006800F08C
:102C50000400019000BF00BF00BF002001900846A3
:102C6000006840F0200008600846006800F020007E
:102C7000019000BF00BF00BF00200190084600681F
:102C800040F0100008600846006800F01000019055
:102C900000BF00BF012210211D48FDF753FF012294
:102CA00011461C48FDF74EFF1020029001200390B2
:102CB00004900220059002A91548FDF735FE30204A
:102CC0000290154803900120049002A91348FDF7D3
:102CD0002BFE01200290039004900220059002A98F
:102CE0000C48FDF721FE002211460A20FDF7AEFF39
:102CF0000A20FDF79DFF002211461720FDF7A6FFD1
:102D00001720FDF795FF07B000BD000030380240E6
:102D100000000240000402400000211000080240B0
:102D200010B50F480F4908604FF4827048600021C9
:102D30000C488160C16002210161012141614902A9
:102D400081613821C16100210162416281620A21F1
:102D5000C162FEF7F4FA08B1FDF73AFD10BD0000BC
:102D600000300140E400002000B587B01C21684617
:102D7000FDF7F1FA15481649086000204860002167
:102D80001348816041F28731C16000210161816196
:102D9000FEF72EFD08B1FDF71BFD0D48FFF7E1FC26
:102DA00008B1FDF715FD6020009000200190029011
:102DB0000490002269460648FFF765FC08B1FDF75C
:102DC00007FD0348FFF7E0FB07B000BD00440140EA
:102DD0007C0200201FB5002000900190029003901B
:102DE000164817490860A7204860002114488160F0
:102DF00044F61F61C1600021016180218161FFF7FC
:102E00003EFA08B1FDF7E4FC00200090012001909B
:102E10000020029008200390002269460848FFF72E
:102E2000CFF908B1FDF7D4FC042269460448FFF746
:102E3000C7F908B1FDF7CCFC1FBD00000018004029
:102E4000BC02002000B595B00020119012901390A4
:102E500014900F9010901C2108A8FDF77CFA2021F7
:102E60006846FDF778FA384838490860A720486076
:102E700000213648816044F61F61C1600021016174
:102E800041618161FEF7B4FC08B1FDF7A1FC4FF48C
:102E90008050119011A92D48FEF7AEFD08B1FDF745
:102EA00097FC2A48FFF75DFC08B1FDF791FC002074
:102EB0000F9010900FA92548FEF773FC08B1FDF79D
:102EC00087FC602008904FF4FA60099000200A9077
:102ED0000B900C900D900E90002208A91B48FFF754
:102EE000D2FB08B1FDF774FC042208A91748FFF7CC
:102EF000CAFB08B1FDF76CFC082208A91348FFF7CC
:102F0000C2FB08B1FDF764FC0C2208A90F48FFF7CB
:102F1000BAFB08B1FDF75CFC002000900190029024
:102F2000039004904FF400500590002007906946EC
:102F30000648FEF703FC08B1FDF74AFC0348FFF71B
:102F400023FB15B000BD000000000140FC01002083
:102F500000B599B000201590169017901890139016
:102F600014900F901090119012901C2108A8FDF75A
:102F7000F2F920216846FDF7EEF93C483C4908602B
:102F8000A720486000213A48816044F61F61C16073
:102F9000002101610821416180218161FEF728FC47
:102FA00008B1FDF715FC4FF48050159015A9304875
:102FB000FEF722FD08B1FDF70BFC2D48FFF75FF986
:102FC00008B1FDF705FC2A48FFF7CBFB08B1FDF778
:102FD000FFFB00201390149013A92548FEF7E1FB96
:102FE00008B1FDF7F5FB00200F90012010900020A4
:102FF00011900820129000220FA91D48FFF7E0F859
:1030000008B1FDF7E5FB04220FA91948FFF7D8F82E
:1030100008B1FDF7DDFB602008904FF4FA600990DD
:1030200000200A900B900C900D900E90082208A999
:103030000F48FFF728FB08B1FDF7CAFB00200090FE
:1030400001900290039004904FF4005005900020EE
:10305000079069460648FEF771FB08B1FDF7B8FB1B
:103060000348FFF791FA19B000BD000000040140C9
:103070003C02002010B50B480B4908604FF4E130CA
:103080004860002108488160C16001610C214161F4
:1030900000218161C161FFF759FC08B1FDF798FB80
:1030A00010BD000000100140FC02002010B52DED05
:1030B000108BF0EE408AB0EE609AF0EE419AB0EEDE
:1030C00061BAB0EE42AAF0EE62AAB5EEC0BAF1EE75
:1030D00010FA09D1B5EEC0AAF1EE10FA04D1F5EE5E
:1030E000C0AAF1EE10FA7CD06BEE0B0A4AEE0A0A87
:1030F0004AEEAA0AB0EE600A01F074FDB0EE408A12
:10310000B0EE480A2BEE000AB0EE40BAB0EE480A24
:103110002AEE000AB0EE40AAB0EE480A2AEE800A73
:10312000F0EE40AAB74890ED000AB748D0ED000A8B
:1031300020EE200AB548D0ED000AB54890ED001AFF
:10314000B0EE40DA00EEC1DAB04890ED000AAD48CA
:10315000D0ED000A20EE200AAD48D0ED000AAA48C2
:1031600090ED001AF0EE40DA40EE81DAA748D0ED9B
:10317000000A90ED001AB6EE000A10EE810AA2488D
:10318000D0ED000A90ED001AB0EE40EA00EE81EAC0
:103190002AEE0E0AF0EE40EA4AEEEDEA2AEE8D0A39
:1031A000B0EE40FA0BEE4EFA2BEE2D0AF0EE40FA9E
:1031B0004AEE4DFA974890ED000AB5EEC00AF1EEDE
:1031C00010FA40DD90ED000A60EE2E0A924890ED74
:1031D000000A9FED921A00EE810A80ED000A8D48E8
:1031E00000E058E090ED000A60EE0F0A8C4890ED88
:1031F000000A9FED8A1A00EE810A80ED000A8548D8
:1032000090ED000A60EE2F0A864890ED000A9FEDCF
:10321000831A00EE810A80ED000A7F4890ED000AD3
:1032200038EE800AF0EE408A7D4890ED000A39EED3
:10323000000AB0EE409A7B4890ED000A39EE800A11
:10324000F0EE409A0EE09FED780A734880ED000A98
:103250009FED750A724880ED000A9FED730A714870
:1032600080ED000A7148D0ED000AB0EE680A00EE69
:10327000AE0AF0EE408AD0ED000AB0EE490A00EE48
:103280008F0AB0EE409AD0ED000AB0EE690A00EE67
:10329000AF0AF0EE409A9FED660A28EE800AF0EE43
:1032A000408A9FED630A29EE000AB0EE409A9FED36
:1032B000600A29EE800AF0EE409A5448D0ED00BA38
:1032C000504890ED00CA5248D0ED00CAB1EE4C0A09
:1032D00020EE280A0CEEC90A4B48D0ED000A00EE99
:1032E000E90A4A48D0ED000A30EE200A80ED000AD3
:1032F0002BEEA80A0CEEA90A4348D0ED000A00EE16
:10330000C90A4048D0ED000A30EE200A80ED000ADC
:103310002BEE890A0CEE690A3B48D0ED000A00EE5C
:10332000A80A3B48D0ED000A30EE200A80ED000AE2
:103330002BEEA90A0CEE090A0CEEE80A3248D0ED91
:10334000000A30EE200A80ED000A3048D0ED000A75
:1033500090ED001A60EE810A2A4890ED001AD0ED37
:10336000001A41EE210A2A4890ED001AD0ED001A09
:1033700041EE210A244890ED001AD0ED001A41EEEA
:10338000210AB0EE600A01F02DFCB0EE408A1F4821
:1033900090ED000A20EE080A80ED000A194890ED31
:1033A000000A20EE080A80ED000A194890ED000A94
:1033B00020EE080A80ED000A134890ED000A20EE86
:1033C000080A80ED000A114890ED000A194880EDC6
:1033D000000A0C4890ED000A164880ED010A0C48DE
:1033E00090ED000A134880ED020A074890ED000AAC
:1033F000104880ED030A104900F024F8BDEC108B52
:1034000010BD000060000020680000205C0000206B
:1034100064000020580000206C0000200AD7233CE4
:103420007000002074000020000000005400002004
:103430000AD7A33BD4000020C800002000BFFEE74D
:103440007047704770B52DED0C8B04460E4694ED19
:10345000000AF0EE409A94ED010AB0EE408A94ED35
:10346000020AF0EE408A94ED030AB0EE409A29EE8B
:10347000A80A08EE490AF0EE000A20EE200A10EE33
:10348000101A084602F054FA41EC1D0BB0EE4D0A3A
:10349000F0EE6D0A00F0C8FEB0EE40CAF0EE60CA71
:1034A0009FED430B53EC102B51EC1C0B01F080FFF4
:1034B00041EC1B0B9FED400B53EC102B01F020FE59
:1034C00041EC1A0B01F042FD3D49086029EE890AE2
:1034D00008EE280A68EEA80A49EE090AB7EE001AB3
:1034E000F0EE001A01EEE01AC0EE010A10EE905A5A
:1034F000284602F01DFA41EC1D0BB0EE4D0AF0EE2D
:103500006D0A01F041F8B0EE40CAF0EE60CA9FEDDE
:10351000280B53EC102B51EC1C0B01F049FF41EC34
:103520001B0B9FED250B53EC102B01F0E9FD41EC3B
:103530001A0B01F00BFD2249486029EE880A09EEBA
:10354000280A68EEA80A48EE080AB7EE001AF0EE5C
:10355000001A01EEE01AC0EE010A10EE905A284659
:1035600002F0E6F941EC1D0BB0EE4D0AF0EE6D0AEB
:1035700001F00AF8B0EE40CAF0EE60CA9FED0C0B05
:1035800053EC102B51EC1C0B01F012FF41EC1B0B08
:103590009FED090B53EC102B01F0B2FD41EC1A0B1F
:1035A00001F0D4FC06498860BDEC0C8B70BD0000B6
:1035B00000000000008066401F85EB51B81E0940E6
:1035C000C800002010B582B004461548DFF854C08A
:1035D0000068B0FBFCF04FF47A7C00FB0CF001902B
:1035E0006068B0F5827F0ED10B46009200228021E8
:1035F000204600F019F880B1606D40F02000606551
:1036000002B0032010BD019838B10198401E01900E
:103610002068806810F0800FF5D102B0002010BD46
:103620000800002000366E012DE9F0410446069E98
:10363000884617461D462068806838EA000016D084
:103640000020B84210D0B5F1FF3F05D0FDF782FA57
:10365000801BA8420DD265B12068806838EA00005E
:1036600033D00020B842EED10020BDE8F081012027
:10367000E7E72068416821F0E00141606068B0F54B
:10368000827F0BD1A068B0F5004F02D0B0F5806FFB
:1036900004D12068016821F040010160A06AB0F502
:1036A000005F09D12068016821F4005101602068A1
:1036B000016841F400510160012084F851000020AC
:1036C00084F850000320BDE8F0810120CAE770476C
:1036D00010B5FDF745FA10BD00B593B0302107A82D
:1036E000FCF739FE142102A8FCF735FE00BF0020CC
:1036F00001902448006840F0805022490860084644
:10370000006800F08050019000BF00BF00BF0020A3
:1037100001901D48006840F480401B49086008463D
:10372000006800F48040019000BF00BF01200790B6
:103730000004089002200D9041050E9106210F9182
:10374000A8211091022111910721129107A8FDF7DC
:10375000DBFB08B1FDF73CF80F200290022003903C
:10376000002004904FF4A05005904FF48050069034
:10377000052102A8FDF7B0FA08B1FDF729F813B04A
:1037800000BD00004038024000700040144800684E
:1037900040F47000124908601248006840F00100CF
:1037A0001049086000200F49083108600D48006882
:1037B0000D4908400B4908600C48091D0860081FA6
:1037C000006820F48020091F0860002005490C31A2
:1037D00008604FF0006002498039086070470000BF
:1037E00088ED00E000380240FFFFF6FE10300024B4
:1037F00010B50248FEF70EFE10BD0000FC010020CF
:1038000010B50248FEF706FE10BD0000FC010020C6
:1038100010B50248FEF7FEFD10BD0000FC010020BF
:1038200010B50348FEF7F6FD0248FEF7F3FD10BDA4
:10383000FC0100207C02002010B50348FEF7EAFDE1
:103840000248FEF7E7FD10BD3C020020BC0200204C
:1038500010B50248FEF7DEFD10BD00003C0200205E
:1038600010B50248FEF7D6FD10BD00003C02002056
:1038700010B50248FEF7CEFD10BD00003C0200204E
:10388000F0B402682C4B2D4C2D4D2E4EDFF8B8C0F5
:1038900098420AD0B0F1804F07D0A04205D0A8428C
:1038A00003D0B04201D0604503D122F070024F68CE
:1038B0003A43984228D0B0F1804F25D0A04223D07F
:1038C000A84221D0B0421FD060451DD0A0F1804455
:1038D000B4F5A03418D0A0F18044B4F5A23413D0CC
:1038E000A0F18044B4F5A4340ED0A0F18044B4F526
:1038F000C05409D0A0F18044B4F5E05404D0A0F144
:103900008044B4F5005403D122F44072CC682243C1
:103910004C6922F08002224302608A68C2620A680F
:103920008262984201D0604501D109690163012199
:103930004161F0BC704700000000014000040040FD
:1039400000080040000C00400004014001F01F018D
:1039500001238B40D0F820C02CEA03030362036AE2
:1039600002FA01F1194301627047D0F808C02CF443
:103970007F4C42EA0322114341EA0C018160704707
:10398000826822F07002114341F0070181607047A4
:1039900070B4026A22F001020262036A4268D0F83F
:1039A00018C02CF0700C2CF0030C0C6844EA0C0CC2
:1039B00023F002038C6823430F4C104DA04201D02A
:1039C000A84205D123F00803CE68334323F0040353
:1039D000A04201D0A84207D122F4807222F40072E2
:1039E0004C6922438C6922434260C0F818C0496880
:1039F0004163036270BC7047000001400004014055
:103A000070B4026A22F010020262036A4268D0F8BF
:103A100018C02CF4E04C2CF4407C0C684CEA042CCC
:103A200023F020038C6843EA0413114C114DA0428B
:103A300001D0A84206D123F08003CE6843EA0613E2
:103A400023F04003A04201D0A84209D122F48062B1
:103A500022F400624C6942EA84028C6942EA8402E0
:103A60004260C0F818C049688163036270BC704747
:103A7000000001400004014070B4026A22F4807228
:103A80000262036A4268D0F81CC02CF0700C2CF063
:103A9000030C0C6844EA0C0C23F400738C6843EAB2
:103AA0000423114C114DA04201D0A84206D123F4A9
:103AB0000063CE6843EA062323F48063A04201D06A
:103AC000A84209D122F4805222F400524C6942EA01
:103AD00004128C6942EA04124260C0F81CC04968B2
:103AE000C163036270BC70470000014000040140E4
:103AF00010B4026A22F480520262D0F820C04268F8
:103B0000C36923F4E04323F440730C6843EA0423BD
:103B10002CF4005C8C684CEA043CA0F18044B4F5C1
:103B2000803404D0A0F18044B4F5823404D122F46E
:103B300080424C6942EA84124260C3614968016470
:103B4000C0F820C010BC7047036AD0F820C02CF029
:103B5000010CC0F820C0D0F818C02CF0F00C4CEAD2
:103B6000021223F00A03194382610162704730B4E4
:103B7000D0F820C02CF0010CC0F820C0D0F818C03C
:103B8000046AA0F18045B5F5803532D0B0F1804FA0
:103B90002FD0A0F18045B5F580652AD0A0F18045F1
:103BA000B5F5006525D0A0F18045B5F5406520D07C
:103BB000A0F18045B5F582351BD0A0F18045B5F563
:103BC000A03516D0A0F18045B5F5C05511D04CF008
:103BD000010222F0F0024FF0F00C0CEA03131A433A
:103BE00024F00A0301F00A0119438261016230BC2A
:103BF00070472CF0030C4CEA0202EAE7036A23F058
:103C000010030362D0F818C0036A2CF4704C4CEA1D
:103C1000023223F0A00343EA01118261016270477E
:103C200010B4D0F820C02CF0100CC0F820C084696B
:103C3000D0F820C024F4407444EA022222F47042F6
:103C40004FF4704404EA03331A432CF0A0034FF0FE
:103C5000A00C0CEA011119438261016210BC70478B
:103C600010B4D0F820C02CF4807CC0F820C0C46907
:103C7000D0F820C024F00304224322F0F002F02404
:103C800004EA03131A432CF420634FF4206C0CEA6B
:103C900001211943C261016210BC704710B4D0F811
:103CA00020C02CF4805CC0F820C0C469D0F820C0CB
:103CB00024F4407444EA022222F470424FF4704427
:103CC00004EA03331A432CF420434FF4204C0CEA4B
:103CD00001311943C261016210BC704710B5806B9D
:103CE0000021C185C184FEF793FD10BD0168CA683B
:103CF00022F49072CA6001684A6922F001024A61A6
:103D0000202180F83A10704710B50168CA6822F087
:103D10004002CA60202180F83910FEF724FF0020FD
:103D200010BD10B590F83A10222901D0022010BD24
:103D30008168B1F5805F11D0016919B301684968E4
:103D400001F07F02816A4B1C83620A70C18D491E9B
:103D50000904090CC1851CD0002010BD816A0269CC
:103D60003AB102685268D2B20A80816A491C816203
:103D7000ECE702685268C2F308020A80816A891C73
:103D80008162E3E701684A68816A4B1C83620A70BA
:103D9000DCE70168CA6822F02002CA600168CA68CC
:103DA00022F48072CA6001684A6922F001024A6105
:103DB000202180F83A10FEF767FE002010BD0000B9
:103DC0002DE9F041044620680169E26821F4405180
:103DD000114301612169A068E269084361691143E7
:103DE00001432068C26822F4037222F41442114392
:103DF000C16020684169A26921F4407111434161A9
:103E0000E069BC4ABC49BD4D3226B0F5004F5ED0DA
:103E10002068884202D0904240F01281FDF72CF8D1
:103E200000EBC00101EB001061688900B0FBF1F705
:103E3000FDF722F800EBC00101EB0010616889007A
:103E4000B0FBF1F0A5FB001040096FF018014843EA
:103E500007EB800006EB0010A5FB0010400900F006
:103E6000F007FDF709F800EBC00101EB00106168F5
:103E70008900B0FBF1F0A5FB0010400907EB00172B
:103E8000FCF7FAFF00EBC00101EB0010616889004C
:103E9000B0FBF1F8FCF7F0FF00EBC00101EB001004
:103EA00061688900B0FBF1F0A5FB001040096FF0DC
:103EB0001801484308EB800006EB0010A5FB00103A
:103EC0002168C0F3431038448860BDE8F081206861
:103ED000884201D0904259D1FCF7CEFF00EBC001DF
:103EE00001EB001061684900B0FBF1F0A5FB001088
:103EF00040090701FCF7C0FF00EBC00101EB001017
:103F000061684900B0FBF1F8FCF7B6FF00EBC001B7
:103F100001EB001061684900B0FBF1F0A5FB001057
:103F200040096FF01801484308EB800006EBC00021
:103F3000A5FB0010400900F0F80007EB4007FCF774
:103F40009BFF00EBC00101EB001061684900B0FB72
:103F5000F1F8FCF791FF00EBC00101EB0010616884
:103F60004900B0FBF1F0A5FB001040096FF018010B
:103F7000484308EB800006EBC000A5FB0010216859
:103F8000C0F3421038448860BDE8F081FCF764FF5C
:103F900000EBC00101EB001061684900B0FBF1F0DB
:103FA000A5FB001040090701FCF756FF00EBC0011C
:103FB00001EB001061684900B0FBF1F8FCF74CFF21
:103FC00000EBC00101EB001061684900B0FBF1F0AB
:103FD000A5FB001040096FF01801484308EB800072
:103FE00006EBC000A5FB0010400900F0F80007EB4D
:103FF0004007FCF731FF00EBC00101EB00106168E6
:104000004900B0FBF1F8FCF727FF00EBC00101EB22
:10401000001061684900B0FBF1F0A5FB00104009F9
:104020006FF01801484308EB800006EBC000A5FBC9
:1040300000102168C0F3421038448860BDE8F08168
:10404000FCF70AFF00EBC00101EB0010616889007A
:10405000B0FBF1F7FCF700FF00EBC00101EB001033
:1040600061688900B0FBF1F0A5FB001040096FF01A
:104070001801484307EB800006EB0010A5FB001079
:10408000400900F0F007FCF7E7FE00EBC00101EB90
:10409000001061688900B0FBF1F0A5FB0010400939
:1040A00007EB0017FCF7D8FE00EBC00101EB001096
:1040B00061688900B0FBF1F8FCF7CEFE00EBC001AF
:1040C00001EB001061688900B0FBF1F0A5FB001066
:1040D00040096FF01801484308EB800006EB001020
:1040E000A5FB00102168C0F3431038448860BDE888
:1040F000F081000000140140001001401F85EB51C9
:1041000090F83910212901D0022070478168B1F55B
:10411000805F0CD0016A4A1C026202680978516013
:10412000C18C491E0904090CC18410D019E0016A30
:1041300002680988C1F308015160016919B1016A77
:10414000491C0162ECE7016A891C0162E8E7016829
:10415000CA6822F08002CA600068C16841F040016C
:10416000C160002070472DE9F0410446069D884655
:1041700017461E462068006838EA000020D000205C
:10418000B84227D1B5F1FF3F1CD025B1FCF7E2FCC6
:10419000801BA84216D92068C16821F4D071C16083
:1041A0002068416921F001014161202084F8390033
:1041B00084F83A00002084F838000320BDE8F0813C
:1041C0000120DDE72068006838EA000005D0002003
:1041D000B842D7D00020BDE8F0810120F8E7000008
:1041E00010B50248FEF716FB10BD0000FC020020CF
:1041F00000BFFEE703B401984100009850EAC120D7
:1042000018BF04204A0D18BF40F0010040F2FF72B1
:10421000B2EB515F08BF40F00200012808BF052043
:1042200002B070470000000070B5C1482DED020BD0
:104230002DED0E8B82B0119D25F000449FEDBEDB6D
:104240009FEDBFEB84423EDBA4F140511098A1F1F9
:104250007F6108430FD0BC48844202DC28D110980B
:1042600030B39DED100B02B0BDEC0E8B02B0BDE87B
:10427000704000F071BB9DED100B53EC1D2B51EC09
:10428000100B01F095F89DED100B41EC180B53EC61
:104290001E2B51EC100B01F08BF853EC182B00F097
:1042A00087FE41EC100B02B0BDEC0E8B02B070BD6E
:1042B0000120FCF77FF802B0BDEC0E8B02B0BDE828
:1042C000704000F055BBA1489FEDA18B844256DAA7
:1042D0009DED100BB4F1795F0ADA51EC100BFFF78A
:1042E00089FF042808BF00F053FB9DED100BDAE7AF
:1042F00053EC102B51EC100B01F05AF841EC190B58
:1043000095480621B0EE490AF0EE690A784400F0BB
:10431000A7FA53EC192B51EC100B01F049F841ECC2
:104320001A0B8E48B0EE490AF0EE690A042178446F
:1043300000F096FA53EC192B51EC100B01F038F801
:1043400053EC182B00F034FE41EC100B51EC1A0B1F
:1043500053EC102B00F0D4FECDE900019DED000BD5
:1043600053EC102B9DED100B51EC100B01F020F8CD
:104370009DED101B53EC112B00F01AFED2E09DEDC9
:10438000100B51EC100B00F021FC53EC182B01F03A
:104390000DF99FED730BCDE9000153EC102B9DED52
:1043A000000B51EC100B01F003F841EC190B6E48B7
:1043B0000621B0EE490AF0EE690A784400F050FA9E
:1043C00053EC192B51EC100B00F0F2FF41EC1B0BDE
:1043D0006648B0EE490AF0EE690A0421784400F01C
:1043E0003FFA53EC192B51EC100B00F0E1FF53ECAA
:1043F000182B00F0DDFD41EC1C0B51EC190B00F00B
:1044000021FD41EC180B5A489FED5BABA04222DC2A
:1044100053EC1C2B51EC1B0B00F072FECDE900019C
:104420009DED000B51EC180B53EC102B00F0C0FF6E
:1044300053EC182B00F0BCFD53EC1A2B00F0B8FF26
:1044400053EC1D2B01F08AF953EC1E2B01F0AEF852
:1044500041EC100B5FE08DED008B002000909DED96
:10446000000B51EC180B53EC102B00F0A1FD9DED4F
:10447000000B41EC1E0B53EC102B51EC100B00F019
:1044800097FF53EC192B01F091F853EC1E2B00F021
:1044900037FE41EC190B53EC1C2B51EC1B0B00F0BD
:1044A0002FFE41EC1B0B53EC1A2B51EC190B00F0B7
:1044B0007FFF53EC1D2B01F079F841EC190B53EC05
:1044C0001A2B51EC180B00F073FF53EC1B2B00F070
:1044D0006FFF53EC192B01F041F99DED000B41ECFE
:1044E000180B53EC1A2B51EC100B00F061FF9FEDF1
:1044F000249B53EC192B01F059F841EC100B51ECB3
:10450000180B53EC102B01F029F953EC192B01F087
:104510004DF841EC100B002D3FF7C5AE51EC100BE0
:1045200000F008FD41EC100BBDE6000000000000AB
:104530000000F03F00000000075C143326A6913C09
:10454000182D4454FB21F93F0000F07F0000E03FAC
:10455000000000000000F03F381700004617000080
:10456000000000000000E03F8A16000098160000DE
:104570003333EF3F00000000000000000000004067
:10458000182D4454FB21E93F70B59B482DED020BDB
:104590002DED068B079D25F00044A04218DC9748BE
:1045A000844202DC0AD1069840B19DED060BBDECB9
:1045B000068B02B0BDE8704000F0CEB9002DCCBF34
:1045C0009FED8F0B9FED900BBDEC068B02B070BD85
:1045D0008F48A04215DD8F48A042D8BF4FF0FF346E
:1045E00058DD9DED060B51EC100BFFF703FE042880
:1045F00008BF00F0CDF99DED060BBDEC068B02B0B7
:1046000070BD9DED060B51EC100B00F0DFFACDE90B
:10461000060181489FED828BA0423CDD8248A0428A
:104620001FDD00249FED82AB9DED060B53EC1A2B92
:1046300051EC100B00F0BCFC9DED060B41EC190B8E
:1046400053EC1A2B51EC100B00F0B2FE53EC182B6C
:1046500001F084F853EC192B00F052FDCDE906016E
:1046600049E09DED060B012453EC182B51EC100B87
:1046700000F09EFC9DED060B41EC190B53EC182B42
:1046800051EC100B01F06AF853EC192B00F038FDD7
:10469000CDE906012FE06848A0421FDD02249FED0E
:1046A000689B9DED060B53EC192B51EC100B00F0A1
:1046B0007FFE53EC182B00F07BFC9DED060B41ECCC
:1046C000180B53EC192B51EC100B01F047F853EC7D
:1046D000182B00F015FDCDE906010CE09DED060B51
:1046E000032453EC102B9FED580B51EC100B00F0F2
:1046F00007FDCDE906019DED060B53EC102B51ECA7
:10470000100B00F055FE41EC180B53EC182B00F089
:104710004FFE41EC190B4E480621B0EE490AF0EE6F
:10472000690A784400F09CF853EC182B51EC100BFC
:1047300000F03EFE41EC180B4648B0EE490AF0EEA0
:10474000690A0521784400F08BF853EC192B51ECE1
:10475000100B00F02DFE41EC100B51EC180B53EC3C
:10476000102B002C0EDA00F023FC9DED061B53EC01
:10477000112B00F01DFE9DED061B53EC112B00F0DC
:1047800015FF35E000F014FC9DED061B53EC112BDA
:1047900000F00EFE41EC100B2F48784400EBC400F3
:1047A00090ED001B51EC100B53EC112B00F0D6FFD9
:1047B0009DED061B53EC112B00F0D0FF41EC100BCC
:1047C0002648784400EBC40090ED001B51EC100B20
:1047D00053EC112B00F0EAFE41EC100B002DA2BFB0
:1047E000BDEC068B02B070BD51EC100B00F0A2FBCB
:1047F00041EC100B01E70000000010440000F07FC6
:10480000182D4454FB21F93F182D4454FB21F9BFC6
:104810000000DC3F0000203E0000F33F00000000ED
:10482000000000000000F03F0000E63F0000000034
:104830000000000000000040008003400000000075
:10484000000000000000F83F000000000000F0BF82
:10485000DA130000901300001A130000D2120000B7
:1048600070B504462DED028B4D1E00EBC500B0EE79
:10487000408AF0EE608A90ED000B35F0060017D00C
:1048800053EC182B51EC100B00F092FD41EC100B87
:104890006D1E04EBC50090ED001B51EC100B53ECAA
:1048A000112B00F085FB41EC100B35F00600E7D131
:1048B000022D36D0042D1CD0062D1CBFBDEC028B62
:1048C00070BD53EC182B51EC100B00F071FD94ED02
:1048D0000A1B53EC112B00F06BFB53EC182B00F070
:1048E00067FD94ED081B53EC112B00F061FB41ECCC
:1048F000100B53EC182B51EC100B00F059FD94EDFC
:10490000061B53EC112B00F053FB53EC182B00F05B
:104910004FFD94ED040B53EC102B00F049FB41ECE0
:10492000100B53EC182B51EC100B00F041FD94EDE3
:10493000021B53EC112B00F03BFB53EC182B00F047
:1049400037FD94ED001B53EC112B00F031FBBDEC57
:10495000028B41EC100B70BD10B553EC102B51ECD9
:10496000100B00F025FB41EC100B10BD0000000007
:104970009FED050B10B553EC102B51EC100B00F014
:10498000BFFB41EC100B10BD000000000000000058
:104990009FED050B10B553EC102B51EC100B00F0F4
:1049A00007FD41EC100B10BD0000000000000010DE
:1049B00070B500250024FBF74BFD8020FBF788FE37
:1049C0005520FBF785FE5520FBF782FE0546FBF7D9
:1049D00035FD9620FBF76AFDFBF73AFD8020FBF7DB
:1049E00077FE5520FBF774FE5520FBF771FE054658
:1049F000FBF724FD9620FBF759FDFBF729FDB621B7
:104A00007E20FBF775FEFBF719FD5020FBF741FDFB
:104A1000FBF71EFD8020FBF75BFE5520FBF758FEE1
:104A20005520FBF755FE0546FBF708FD9620FBF7E2
:104A30003DFDFBF70DFD8020FBF74AFE5520FBF7FF
:104A400047FE5520FBF744FE0546FBF7F7FC962092
:104A5000FBF72CFD1E2D01D0FF2070BD002434E09B
:104A6000FBF7F6FC04EB44021A4B1A44517804EBB2
:104A70004402985CFBF73CFEFBF7E0FC9620FBF75A
:104A800015FDFBF7E5FC04EB4401124A515C41F0D3
:104A90008000FBF71DFE5520FBF71AFE5520FBF7A3
:104AA00017FE0546FBF7CAFC9620FBF7FFFC04EB5C
:104AB0004400084908444078A84204D004EB44006C
:104AC00008448078C9E7601CC4B2062CC8DB00200B
:104AD000C3E700008000002038B5002400200090CB
:104AE000FBF7CCFC69460020FBF7E5FDFBF7BCFCBF
:104AF0009620FBF7DBFCFBF7C1FC69460020FBF7C7
:104B0000DAFDFBF7B1FC9620FBF7D0FCFBF7B6FC17
:104B1000B6211420FBF7ECFDFBF7A6FC5020FBF7B9
:104B2000B8FCFBF7ABFC69460020FBF7C4FDFBF7C4
:104B30009BFC9620FBF7BAFCFBF7A0FC6946002023
:104B4000FBF7B9FDFBF790FC9620FBF7AFFC9DF857
:104B500000000F2801D0FF2038BD00242FE0FBF714
:104B60008DFC04EB4402184B1A44517804EB4402C8
:104B7000985CFBF7BDFDFBF777FC9620FBF796FCF6
:104B8000FBF77CFC04EB44010F4A505C6946FBF7E1
:104B900092FDFBF769FC9620FBF788FC04EB4400D0
:104BA0000949084440789DF80010884205D004EB7C
:104BB0004400054908448078CEE7601CC4B2062C46
:104BC000CDDB0020C8E700009200002082B0CDE9D4
:104BD000000121F0004001909DED000B02B051EC6E
:104BE000100B7047F0EE400AF6EE001A60EEA11AC4
:104BF000B0EE611AB0EE600A10EE100A0749A1EBA0
:104C0000600000EE100A21EE002AF7EE081A42EECC
:104C1000401A61EE801AB0EE610A7047DF59375FC3
:104C20002DED0C8BFBF7A4FFFEF756FDFDF7C2FF41
:104C3000FDF79CFFFEF774F8FEF796F8FEF702F911
:104C4000FEF786F9FEF7C6F8FEF714FA7448FCF78B
:104C5000C1FE08217248FDF7A2FD7248FCF7BAFEBA
:104C600000217048FDF79BFD04216E48FDF797FD7C
:104C700008216C48FDF793FD0C216A48FDF78FFD74
:104C800069480068C06840F0200067490968C8604A
:104C900065480068C06840F0100063490968C86052
:104CA00000BF5F480068006A4FF6F57108405C4934
:104CB000096808625A480068006A59490968086228
:104CC00000BF00215648FDF743FB00BF5448006871
:104CD000006A4FF65F710840514909680862504800
:104CE0000068006A4E490968086200BF04214C4808
:104CF000FDF72EFB00BF4D480068006A4FF6F571C6
:104D000008404A490968086248480068006A4749FB
:104D10000968086200BF00214448FDF719FB00BF85
:104D200042480068006A4FF65F7108403F490968D1
:104D300008623E480068006A3C490968086200BF92
:104D400004213A48FDF704FB0120394908704870F6
:104D500038490870487000BFFBF7CDFB0028FBD135
:104D60005DE0354A35493648FBF7D4FB334890EDD2
:104D7000020A10EE101A084600F0DAFD41EC180B9A
:104D80002E4890ED010A10EE101A084600F0D0FDF2
:104D900041EC190B294890ED000A10EE101A084654
:104DA00000F0C6FD41EC1A0B254890ED020A10EE0A
:104DB000101A084600F0BCFD41EC1B0B204890ED9A
:104DC000010A10EE101A084600F0B2FD41EC1C0B6F
:104DD0001B4890ED000A10EE101A084600F0A8FDDE
:104DE00041EC1D0BB0EE485AF0EE685AB0EE494A5D
:104DF000F0EE694AB0EE4A3AF0EE6A3AB0EE4B2A6B
:104E0000F0EE6B2AB0EE4C1AF0EE6C1AB0EE4D0AD2
:104E1000F0EE6D0AFEF74AF90A20FBF763FDA0E702
:104E20003C020020FC010020FC020020BC0200200B
:104E3000000000200200002004000020BC00002030
:104E4000B000002000B52DED048B83B041EC190BB0
:104E500000F0B8FB41EC180B18EE100A18EE901A8F
:104E60008DED008B002818BF0120084320F0004082
:104E7000C0F17F6000F1E040C00F14D019EE101AAD
:104E800019EE900A8DED009B002918BF01210843FF
:104E900020F00040C0F17F6000F1E040C00F04BF8F
:104EA0000120FBF787FA51EC180B03B0BDEC048B23
:104EB00000BD000010B51B4C2488A4F20E64A3B200
:104EC000194C2488A4F20E64A0B2002B00DA00234F
:104ED00040F2145404EB430404EB4004A1B203EB8E
:104EE000430404F21454A4EB4004A2B2B1F5E16F00
:104EF00001DD4FF4E16140F21454A14200DA214691
:104F0000B2F5E16F01DD4FF4E16240F21454A242C8
:104F100000DA2246054C2468E263054C2468A1634C
:104F200010BD00004C0000204E0000203C0200207C
:104F3000FC01002081F00041704780F00040704784
:104F400021F00041704720F00040704721F00042FE
:104F5000A2F16052B2F5801F01F0004328BFD2F1E8
:104F60007F6C0BD95FEA001C43EAC20242EB50702F
:104F700018BF704728BF20F001007047B2F5801FAE
:104F8000BCBF184670474FEA410C1CF5001F02D207
:104F9000084600F043BD70B500F0B4FA0000008987
:104FA000FFF7F6BF4FF00040A0F58000704700000B
:104FB00010B591EA030F48BF83F0004300F1D68398
:104FC000841A71EB030C05D2121943EB0C03001B7E
:104FD00061EB0C01DFF824E14FEA1154A4EB135C00
:104FE0001EEA430F18BF9EEA445F73D023EA0E0304
:104FF000DCF1200E21EA045143F4801332D322FA6B
:105000000CFE10EB0E0023FA0CFE41EB0E01CCF16E
:10501000200E03FA0EFE10EB0E0051F10001B1F567
:10502000801FCCF1200E32D201EB045112FA0EF2A5
:10503000BDE8104058BF7047401C38BF5FEA4202CD
:1050400018BF7047002814BF20F0010041F1000193
:105050004FEA410313F5001F38BF7047A1F1C0416B
:1050600000F09EBA012A43EB0302ACF1200CDCF104
:105070001F0E32BF4FF0000E23FA0CF310EB0300AB
:1050800041EB0451B4EB115FD0D0A1EB045101F519
:10509000801149085FEA300001EB04510ED350F152
:1050A000000038BF12FA0EFE08D1BDE81040C9E773
:1050B000401C38BF5FEA4202CAD1C3E7BDE81040D6
:1050C0004FEA410313F5001F38BF7047A1F1C041FB
:1050D00000F066BA9EEA445F08D011EA5E0FBDE8B0
:1050E000104004BF01F0004100207047BDE81040AF
:1050F00070B500F007FA00BF64FBBE3E0000E0FFA1
:105100002DE9C04130B4DFF8A0C23CEA111418BF49
:105110003CEA131400F0EC8081EA03051CEA111448
:1051200044EAD57418BF1CEA131500F0C780A4EB3D
:1051300005044FF0004545EAC12145EAC32341EA91
:10514000505143EA525304F17F74994204F50034FC
:105150004FEAC0204FEAC22208BF904200F09C8074
:105160004FEA13650FF24016765D4FEA134506FBD2
:1051700005F7C7F1807706FB07F74FEAD737A7FB9C
:1051800003687642C8F58038A7FB06CE38BFA8F181
:10519000010807FB08E64FF0000EA6FB028CE6FBB9
:1051A00003CEDCF1000CCEF1004E38BFAEF1010EA3
:1051B000A6FB0C584FF000074FF00005E6FB0E87EA
:1051C000A1FB08C6A0FB07CE16EB0E0645F10005B5
:1051D000E1FB076515F1E04E7EBFA4F580345FEA80
:1051E00046066D4116F1800745F100054FEA172785
:1051F0004FEA066647EA0567A6F1DE46B6F1805F2C
:105200004FEA15251FD9384624F0010C05EBC4716F
:10521000BCF1FE6F01EB0C1102D8F0BCBDE80081BF
:1052200024425CBF01F5801E9EEAC47F02D4F0BC1C
:10523000BDE80081244238D4F0BCA1F1C041BDE8F2
:10524000004100F0ADB94FEAD22242EA43524FEAA0
:10525000D323A7FB02864FEAD02040EA415007FB48
:1052600003661EEA0E0F4FEAD12105FB026658BF06
:10527000A6EB0056B6EB00564FEA520E4EEAC37E3E
:1052800018EB0E0E56EB530EBDD518EB02085E411F
:105290007F1C55F10005B6E74FF480154FF000076D
:1052A0004FF000064FF00008ADE7F0BC4FF00000F3
:1052B00001F1C04101F00041BDE8008111EA0C1F7D
:1052C0000CEA131500D00CE013EA0C1F00F0258047
:1052D0004FF00000F0BC81EA030101F00041BDE89D
:1052E0000081F0BCBDE8004181EA030100F058B93B
:1052F000F0BCBDE8004170B500F004F9097EFC3E49
:1053000000F007B881EA03014FF0000001F000410E
:10531000704781EA030100F043B9F0BCBDE80041E9
:105320004FF0000021497047FFFDFBF9F7F5F4F25B
:10533000F0EEEDEBE9E8E6E4E3E1E0DEDDDBDAD830
:10534000D7D5D4D3D1D0CFCDCCCBCAC8C7C6C5C48E
:10535000C2C1C0BFBEBDBCBBBAB9B8B7B6B5B4B3A5
:10536000B2B1B0AFAEADACABAAA9A8A8A7A6A5A490
:10537000A3A3A2A1A09F9F9E9D9C9C9B9A99999854
:105380009797969595949393929191908F8F8E8EF7
:105390008D8C8C8B8B8A8989888887878685858484
:1053A00084838382828181800000FF070000F87F70
:1053B000DFF848C170B51CEA111E1EBF1CEA1315A8
:1053C0009EEA0C0F95EA0C0F00F06F8081EA03044F
:1053D00023EA4C134EEAD47E21EA4C1141F48011A9
:1053E00043F48013AE44A1FB024CA0FB0365AEF175
:1053F0007F7E361955EB0C05A1FB034C4CF10003E5
:10540000A0FB021C16EB0C06654153F10003094298
:1054100018BF46F0010613F4007F0BD14FEA0331A9
:105420004FEA0530340341EA155140EA16506FF057
:1054300003020AE04FEAC3214FEAC520F40241EA21
:10544000555140EA56506FF0020202EB2E4201EB3A
:10545000025585EACE710AD05FEA440C18BF24F0E9
:10546000004450F1000041F1000120EAD47040F204
:10547000FE7C624500D270BDA84214BF4FF080444C
:105480004FF04044002E08BF0024BEF1806FA8BF3B
:10549000A1F1C041BDE8704080F282804FF0000071
:1054A00001F1C04101F0004170479EEA0C0F0CEA87
:1054B000131518BF95EA0C0F06D04FF0000081EAD3
:1054C000030E0EF0004170BD00F01CF88900013E93
:1054D00000F007B800F009B84FEA430C5FEA5C5CE3
:1054E00008D081EA030100F05BB84FEA410C5FEAA3
:1054F0005C5CF6D14FF00000014970470000FF07E7
:105500000000F87F0EF1020E2EF0030E5EF8046B21
:10551000364205D4012A43EB030515F5001F12D8C6
:10552000012841EB010C1CF5001F0CD80ED14FEAED
:10553000D17C15F5001F0CEB4C0C0CF1020C08BFD4
:105540004CEBD37C04E04FF0080C01E04FEAD37C35
:105550000CEB4C0526FA05F606F00706B6F1040C2E
:1055600006D20EEB860CBDE870404CF0010C604793
:10557000DFE80CF0090B02024FF000414FF0000091
:10558000A1F5002170BD19461046012851EB010418
:1055900018BFD4F5001484BF002001F0004170BD95
:1055A0000808A0F500114FEA3101704791EA030F96
:1055B00010B581F000413FF503AD83F0004300F0EA
:1055C000D5B800002DE9F04101F5801CBCF5001FA5
:1055D000C0F2A9804FEA115C21EA0C510CF1FD0CDC
:1055E00041F480115FEA5C0C0CF5C07C01D34000F3
:1055F000494130A4890241EA905187028E0E0A0C7B
:10560000A45D04FB04F602FB06F6C6F14046A4FBCB
:105610000662F60D46EA422606FB06F4A4FB0123C9
:105620005242C3F1404338BF5B1EA6FB0242002436
:10563000E6FB0324D20B42EA4446A6FB0623A1FB69
:1056400002E2A3FB07E4E3FB61426442C2F1404E85
:1056500038BFAEF1010EA6FB04234FF00002E6FBBB
:105660000E32A2FB03463400E2FB6264A1FB06E6B5
:10567000A4FB07E8E4FB61687642C8F1405838BFF4
:10568000A8F10108A2FB06E4A3FB08E5E2FB6854CD
:10569000A1FB05E6A7FB04E8E1FB648618F1200501
:1056A00056F10006A809A8F11B08B10908F03F0847
:1056B000B8F10A0F40EA86601CD901EB0C51BDE835
:1056C000F08100BFFCF5EEE8E2DDD8D3CFCBC7C355
:1056D000C0BDB9B6B4B1AEACA9A7A5A3A19F9D9B0F
:1056E0009A9896959392908F8D8C8B8988878685D2
:1056F00084838281A0FB006800FB01F208EB420872
:10570000B8EB872807D5341858EB0104D5D5401CD1
:1057100051F10001D1E7341A78EB0104CDD4401ED9
:1057200071F10001C9E75FEA4C0C5FEA9C5C0DD1A6
:1057300005D34FF0000001F00041BDE8F081BDE865
:10574000F04170B5FFF7DEFE6DDBFFBEBDE8F04156
:105750004FF00000004970470000F87F10B591EA53
:10576000030F48BF83F000433FF52AAC841A71EB66
:10577000030C07D212198CF0004C43EB0C03001BF6
:1057800061EB0C01DFF8A4E14FEA1154A4EB135CC8
:105790001EEA430F18BF9EEA445F00F0B08023EA80
:1057A0006E03524221EA0451C3EB6E0338BF5B1E05
:1057B000DCF1200E25D322FA0CFE10EB0E0043FA8A
:1057C0000CFE41EB0E01CCF1200E03FA0EFE10EBA5
:1057D0000E0051F10001CCF1200E29D412FA0EF284
:1057E00001EB0451BDE8104058BF7047401C1CBF7E
:1057F000B2F1004F704700280CBF491C20F0010097
:10580000704712EB020E43EB030218BF4FF0010E7C
:105810004EEA4202ACF1200CDCF11E0E54D943FAE0
:105820000CFE10EB0E0051F1FF31CCF11E0ED5D560
:105830000EF1010E12FA0EFE404141EB010101EBA7
:10584000445C5FEA5C5C10D910EBDE7001EB045144
:1058500038BFBEF1004FBDE8104018BF70470028A8
:105860000CBF491C20F00100704730D24FEAD42C05
:1058700011F5001124F400641BD0B1FA81F20B3A47
:10588000A41AA41ED2F12003914030FA03F3194365
:10589000904001EBCC71002C01EB0451BDE81040AD
:1058A000A8BF704701F1C0414FF0000001F0004176
:1058B0007047B0FA80F310FA03F100D110BDE41A7A
:1058C000173C4805C90AE4E701EB045110BD491033
:1058D00001EB0451BDE810404FEA300002E04FF008
:1058E000000170474A0008BF0042F8D0B2F5001F1F
:1058F00028BF704701F000414FF0000070479EEA5A
:10590000445F07D011EA5E0FBDE8104004BF0021DC
:1059100000207047BDE8104070B5FFF7F3FD00BFF1
:1059200040DFF63E83F00041104670470000E0FF84
:1059300043004FEAD30C4FEA3C0C43401FBF4007E3
:105940000CF1605113F0FE4F70471CF0006F03D153
:1059500000200CF0004170470CF0004343EA507007
:1059600010B540EACC0000F00EF800BF0000009235
:105970004FEA0001FFF714BE4FF000414FF0000066
:10598000A1F5002170470EF1020E2EF0030E5EF815
:10599000044B244204D44FEA4102B2F17F4F11D8A4
:1059A0004FEA4003B3F17F4F0CD80ED14FEAD07CC1
:1059B000B2F17F4F0CEB4C0C0CF1020C08BF4CEB1E
:1059C000D17C04E04FF0080C01E04FEAD17C0CEBF5
:1059D0004C0324FA03F404F00704B4F1040C06D2D7
:1059E0000EEB840CBDE810404CF0010C6047DFE882
:1059F0000CF0070802024FF00040A0F5800010BD37
:105A00000846420018BFD2F1807288BF00F0004003
:105A100010BD4FF04070E1EE100A7047FF2141EADF
:105A2000D050C005704700000000000000000102D7
:105A30000304060708090000000001020304000631
:105A40001016000610160000555555555555C53F02
:105A50007D6FEB0312D6D4BF5544880E55C1C93FA4
:105A60003B8F68B52882A4BF88B20175E0EF493F3B
:105A700009F7FD0DE13D023F4B2D8A1C273A03C07B
:105A8000C88A599CE52A004059018D1B6C06E6BF67
:105A900082922EB1C5B8B33F4FBB610567ACDD3F05
:105AA000182D4454FB21E93F9BF681D20B73EF3F45
:105AB000182D4454FB21F93FE2652F227F2B7A3CBD
:105AC000075C143326A6813CBDCBF07A8807703C76
:105AD000075C143326A6913CC4EB98999999C9BFE9
