:020000040800F2
:10000000A00700202902000829230008191F000862
:10001000252300081F040008A12D0008000000008F
:100020000000000000000000000000002D23000878
:1000300023040008000000002B2300082F230008E1
:10004000430200084302000843020008430200087C
:10005000430200084302000843020008430200086C
:10006000430200084302000843020008430200085C
:10007000430200084302000843020008430200084C
:10008000430200084302000843020008430200083C
:10009000430200084302000843020008430200082C
:1000A00051240008812400087124000861240008FC
:1000B000430200084302000843020008430200080C
:1000C00043020008430200084302000843020008FC
:1000D00043020008ED2C0008430200084302000818
:1000E000430200084302000843020008912400086C
:1000F000C9240008B9240008A92400084302000804
:1001000043020008430200084302000843020008BB
:1001100043020008430200084302000843020008AB
:10012000430200084302000843020008430200089B
:10013000430200084302000843020008430200088B
:10014000430200084302000843020008430200087B
:10015000430200084302000843020008430200086B
:10016000430200084302000843020008430200085B
:100170004302000843020008430200080000000098
:10018000430200084302000800F002F800F03CF8C7
:100190000AA090E8000C82448344AAF10107DA45E2
:1001A00001D100F031F8AFF2090EBAE80F0013F0F8
:1001B000010F18BFFB1A43F0010318473C2D000044
:1001C0005C2D0000103A24BF78C878C1FAD85207D5
:1001D00024BF30C830C144BF04680C6070470000C1
:1001E0000023002400250026103A28BF78C1FBD840
:1001F000520728BF30C148BF0B6070471FB502F0DF
:1002000069FE1FBD10B510BD00F0CFF81146FFF715
:10021000F5FF02F0C7FD00F0EDF803B4FFF7F2FFC1
:1002200003BC00F0F5F80000094880470948004782
:10023000FEE7FEE7FEE7FEE7FEE7FEE7FEE7FEE796
:10024000FEE7FEE704480549054A064B70470000F3
:10025000ED23000889010008A0010020A00700206C
:10026000A0030020A003002053EA020C00F06980E4
:100270002DE9F04B4FF00006002B1FBFB3FA83F5BA
:1002800003FA05F424FA05F65E4012BF1643B2FAEB
:1002900082F502FA05F4C5F120051EBF22FA05FC1D
:1002A00044EA0C04203556EA044C4FEA144418BFC3
:1002B000641C4FF000084FF00009904271EB030CF2
:1002C00039D3002919BFB1FA81F701FA07F6B0FA5C
:1002D00080F700FA07F6C7F120071EBF20FA07FCD7
:1002E00046EA0C062037B6FBF4FCA7EB0507103FE7
:1002F00007F01F0BCBF120060CFA0BFB2CFA06F6CD
:1003000044BFB3460026202FA4BF5E464FF0000B2B
:100310005BEA060C08BF4FF0010B19EB0B09ABFBB6
:10032000027C48EB0608C01B06FB02CC0BFB03CC8F
:1003300071EB0C01C1E70B46024641464846BDE859
:10034000F08B13B54FF000004FF00001AFF30080C9
:10035000BDE81C4070474FF0000200B513469446BC
:100360009646203922BFA0E80C50A0E80C50B1F10D
:100370002001BFF4F7AF090728BFA0E80C5048BF21
:100380000CC05DF804EB890028BF40F8042B08BFBF
:10039000704748BF20F8022B11F0804F18BF00F8BB
:1003A000012B7047704770477047754600F02CF876
:1003B000AE4605006946534620F00700854618B052
:1003C00020B5FFF73FFFBDE820404FF000064FF09B
:1003D00000074FF000084FF0000B21F00701AC467A
:1003E000ACE8C009ACE8C009ACE8C009ACE8C00999
:1003F0008D46704710B50446AFF300802046BDE837
:100400001040FFF70ABF0000004870473C01002081
:1004100001491820ABBEFEE726000200704700BF6E
:10042000FEE770477047000070B5044600F026F9FB
:100430000546B4F1FF3F02D004480078044400F0C0
:100440001DF9401BA042FAD370BD0000240000201B
:100450002DE9F84F0022DFF80082DFF80092DFF884
:1004600000A24FF0030E0F27012303FA02F50B68D9
:100470002B40AB427DD1D1F804C0BCF1020F02D0B9
:10048000BCF1120F12D14FEAD20C00EB8C0CDCF84D
:1004900020605407E40E07FA04FB26EA0B06D1F8A5
:1004A00010B00BFA04F43443CCF8204006684FEA4D
:1004B000420C0EFA0CF4A64391F804B00BF0030BB7
:1004C0000BFA0CFB4BEA060606604E68012E05D0BF
:1004D000022E03D0112E01D0122E11D18668A64310
:1004E000D1F80CB00BFA0CFB4BEA060686604668A6
:1004F00026EA05050E79C6F3001696403543456099
:10050000C56825EA04048D6805FA0CFC4CEA040C65
:10051000C0F80CC0D1F804C01CF0805F7DD0D8F8C2
:1005200000C04CF4804CC8F800C0D8F800C00CF4EF
:10053000804CCDF800C022F0030C0CF1804404F58F
:100540009834D4F808C895072D0F07FA05F62CEA59
:100550000606A0F1804CBCF5003C64D0A0F1804CB4
:10056000BCF5013C62D0A0F1804CBCF5023C60D0EF
:1005700000E052E0A0F1804CBCF5033C5CD0A0F15F
:10058000804CBCF5043C5AD0A0F1804CBCF5053C35
:1005900058D0A0F1804CBCF5063C56D0A0F1804C60
:1005A000BCF5073C54D04FF0080C0CFA05FC4CEAA3
:1005B000060CC4F808C8D9F800C02CEA030C4C6833
:1005C00014F4803F01D04CEA030CC9F800C0254C5C
:1005D000D4F800C02CEA030C4D6815F4003F01D09C
:1005E0004CEA030CC4F800C0DAF800C02CEA030C93
:1005F0004C6814F4801F01D04CEA030CCAF800C008
:10060000194CD4F800C02CEA030C4D6815F4001FF7
:1006100001D04CEA030CC4F800C0521C102AFFF4AD
:1006200023AFBDE8F88F4FF0000CBEE74FF0010C90
:10063000BBE74FF0020CB8E74FF0030CB5E74FF003
:10064000040CB2E74FF0050CAFE74FF0060CACE737
:100650004FF0070CA9E7000044380240003C01407D
:10066000083C0140043C01400C3C0140002A01D000
:10067000816170470904816170470000014880680A
:10068000704700002400002002488168027811446D
:10069000816070472400002010B50B48016841F4C8
:1006A00000710160016841F480610160016841F4FA
:1006B00080710160032000F091F8002000F006F83E
:1006C00000F026F8002010BD003C024070B5044642
:1006D0000D4D4FF47A712878B1FBF0F00B490968A1
:1006E000B1FBF0F000F0C0FB08B1012070BD102C90
:1006F00007D200222146501E00F03CF86C6000201A
:1007000070BD012070BD00002400002020000020EA
:1007100008B500BF002000900E48006840F48040FB
:100720000C4908600846006800F48040009000BF53
:1007300000BF00BF00200090081F006840F08050FC
:10074000091F08600846006800F08050009000BF54
:1007500000BF08BD4438024000280ADB00F01F013A
:10076000012202FA01F14009800000F1E020C0F806
:100770000011704710B4184B1B68C3F30223C3F178
:10078000070CBCF1040F01D94FF0040C1C1D072C01
:1007900001D2002300E0DB1E012404FA0CFCACF1C2
:1007A000010C0CEA0101994004FA03F35B1E1A40A4
:1007B0001143002806DB00F1E020090180F8001455
:1007C00010BC704700F00F0000F1E020090180F834
:1007D000141D10BC704700000CED00E000F0070095
:1007E000064A11684FF6FF03194041EA002040F025
:1007F000FD7040F080601060704700000CED00E07C
:100800002DE9F04704460D46002C13D0DFF8509137
:10081000D9F80000EFB200F00F00A8420DD289F81D
:100820000070D9F8000000F00F00A84205D00120A8
:10083000BDE8F0870120BDE8F0872068494E10F040
:10084000020F14D010F0040F03D0306840F4E050D1
:100850003060207810F0080F03D0306840F460401A
:1008600030603068A16820F0F000084330602078E4
:1008700010F0010F3ED060683B49012808D00228E3
:100880000DD003280BD0096811F0020F28D00AE020
:10089000096811F4003F06D10120BDE8F08709681E
:1008A00011F0007F19D0316821F003010843306056
:1008B000FFF7E4FE80463068616800F00C00B0EBA2
:1008C000810F17D041F2883AFFF7D8FEA0EB08005D
:1008D000504508D90320BDE8F0870120BDE8F08726
:1008E0000120BDE8F0873068616800F00C00B0EBD3
:1008F000810FE9D1D9F8000000F00F00A8420AD911
:1009000089F80070D9F8000000F00F00A84202D06A
:100910000120BDE8F087207810F0040F05D0306882
:10092000E16820F4E05008433060207810F0080FB0
:1009300006D03068216920F4604040EAC100306090
:1009400000F03EF83168094AC1F30311515CC84018
:10095000074908600020FFF7B9FE0020BDE8F087D6
:10096000003C02400838024000380240DE2E0008F9
:10097000200000200148006870470000200000208F
:1009800000B5FFF7F7FF04490968044AC1F3822163
:10099000515CC84000BD000008380240EE2E00083F
:1009A00000B5FFF7E7FF04490968044AC1F3423183
:1009B000515CC84000BD000008380240EE2E00081F
:1009C00010B51748006810F00C01164816D0164BE9
:1009D000042912D0082911D1144C216801F03F02DA
:1009E000216811F4800F0AD02068C0F38810A0FBA2
:1009F00003010023FFF738FC09E0184610BD216809
:100A00000023C1F38811A1FB0001FFF72DFC216831
:100A1000C1F30141491C4900B0FBF1F010BD0000D9
:100A2000083802400024F400001BB70004380240DC
:100A30002DE9F84F0446002C10D02078FA4D10F024
:100A4000010F64D0F948016801F00C0104290DD0B0
:100A5000006800F00C00082803D011E00120BDE878
:100A6000F88FF348006810F4800F09D0286810F45C
:100A7000003F4CD06068002849D10120BDE8F88FC4
:100A80006068B0F5803F14D0B0F5A02F16D028686C
:100A900020F480302860286820F480202860606876
:100AA00010B3FFF7EBFD0646286810F4003F0ED0A8
:100AB0002DE0286840F480302860F0E7286840F492
:100AC00080202860286840F480302860E7E7FFF73E
:100AD000D5FD801B642802D90320BDE8F88F286863
:100AE00010F4003FF3D012E0FFF7C8FD0646286877
:100AF00010F4003F0BD0FFF7C1FD801B642802D922
:100B00000320BDE8F88F286810F4003FF3D1207867
:100B1000C84F10F0020F4FF0000856D0C3480168CC
:100B200011F00C0F15D0006800F00C00082804D15B
:100B3000BF48006810F4800F0BD0E06878B3012044
:100B40003860FFF79BFD0646286810F0020F12D0B0
:100B50001DE0286810F0020F05D0E068012802D0DF
:100B60000120BDE8F88F2868216920F0F80040EAEC
:100B7000C100286029E0FFF781FD801B022802D90F
:100B80000320BDE8F88F286810F0020FF3D0286822
:100B9000216920F0F80040EAC100286015E0FFE775
:100BA000C7F80080FFF76AFD0646286810F0020FBC
:100BB0000BD0FFF763FD801B022802D90320BDE89C
:100BC000F88F286810F0020FF3D1207810F0080F8A
:100BD00033D09948DFF864926169B9B101210160AD
:100BE000FFF74CFD0646D9F8000010F0020F24D1A3
:100BF000FFF744FD801B022802D90320BDE8F88FCF
:100C0000D9F8000010F0020FF2D016E0C0F8008012
:100C1000FFF734FD0646D9F8000010F0020F0CD0A3
:100C2000FFF72CFD801B022802D90320BDE8F88FB6
:100C3000D9F8000010F0020FF2D1207810F0040F64
:100C400073D04FF00009DFF8F8A1DAF8000010F0D7
:100C5000805F0CD1DAF8000040F08050CAF8000044
:100C6000DAF8000000F0805000904FF00109DFF842
:100C7000D4B1DBF8000010F4807F1AD1DBF800005B
:100C800040F48070CBF80000FFF7F8FC0646DBF874
:100C9000000010F4807F0CD1FFF7F0FC801B0228CD
:100CA00002D90320BDE8F88FDBF8000010F4807F44
:100CB000F2D0A068DFF890B1012818D005281DD027
:100CC000DBF8000020F00100CBF80000DBF80000AA
:100CD00020F00400CBF80000A06838B3FFF7CEFC8A
:100CE0000646DBF8000010F0020F14D03CE0DBF801
:100CF000000040F00100CBF80000EDE7DBF8000059
:100D000040F00400CBF80000DBF8000040F00100E8
:100D1000CBF80000E0E7FFF7B1FC811B41F288301F
:100D2000814204D90320BDE8F88F26E005E0DBF816
:100D3000000010F0020FEED016E0FFF79FFC064611
:100D4000DBF8000010F0020F0ED0FFF797FC811BBC
:100D500041F28830814202D90320BDE8F88FDBF8E8
:100D6000000010F0020FF0D1B9F1010F05D1DAF84F
:100D7000000020F08050CAF80000A069E8B32B49B9
:100D8000096801F00C0108296BD0022810D0C7F8BF
:100D90006080FFF773FC0446286810F0007F5ED087
:100DA000FFF76CFC001B022855D90320BDE8F88F23
:100DB000C7F86080FFF762FC0646286810F0007FE5
:100DC0000BD0FFF75BFC801B022802D90320BDE893
:100DD000F88F286810F0007FF3D1216AE069A26AD9
:100DE0000843616A4FF0FF33890103EB520241EA85
:100DF0000241084394F82C1000E030E040EA016121
:100E00000B48016001203866FFF738FC044628686B
:100E100010F0007F23D1FFF731FC001B022815D909
:100E20000320BDE8F88F1CE000380240083802407B
:100E30000438024000004742800E474274380240A6
:100E4000403802400070004070380240286810F0BE
:100E5000007FE0D003E0286810F0007FA0D10020E0
:100E6000DFE70120DDE70000401EB0F1807F01D305
:100E7000012070474FF0E0214861044AF0201070D3
:100E800000208861072008610020704723ED00E002
:100E90007047704790F83C20012A2CD0012280F83E
:100EA0003C20CA680023D1F808C022F4407242EA0C
:100EB0000C02D1F804C022F4806242EA0C02D1F89C
:100EC00000C022F4006242EA0C02D1F810C022F401
:100ED000805242EA0C02D1F814C022F4005242EAD5
:100EE0000C02C96922F4804211430268516480F8FF
:100EF0003C30002070470220704730B490F83C200E
:100F0000012A1ED0012480F83C40022280F83D20B6
:100F10000268D2F804C093682CF0700C0D6845EAA2
:100F20000C0C23F0800349681943C2F804C002681E
:100F3000916080F83D40002180F83C1030BC0020DA
:100F4000704730BC0220704710B50446002C03D017
:100F500094F83D0010B107E0012010BD002084F896
:100F60003C00204600F00CF8022084F83D00211DD2
:100F7000206801F0B1FA012084F83D00002010BD86
:100F800010B586B00446142101A8FFF7E4F95349CF
:100F90002068884230D100BF00200090504800688F
:100FA00040F001004E4908600846006800F001006A
:100FB000009000BF00BF002211461820FFF7DAFBA7
:100FC0001820FFF7C9FB002211461920FFF7D2FBBA
:100FD0001920FFF7C1FB002211461A20FFF7CAFBB8
:100FE0001A20FFF7B9FB002211461B20FFF7C2FBB6
:100FF0001B20FFF7B1FB6EE03A49206888426AD1B6
:1010000000BF002000903648006840F002003449DC
:1010100008600846006800F00200009000BF00BFB2
:1010200000BF002000902E481438006840F4807003
:101030002B49143908600846006800F4807000905D
:1010400000BF00BF00BF002000900846006840F0CD
:10105000040008600846006800F00400009000BF2B
:1010600000BF4020019002200290039000200490D5
:101070000320059001A91C48FFF7EAF940200190E0
:10108000022002900390002004900320059001A903
:101090001648FFF7DDF9002211462B20FFF76AFB07
:1010A0002B20FFF759FB002211462C20FFF762FB93
:1010B0002C20FFF751FB002211462D20FFF75AFB91
:1010C0002D20FFF749FB002211462E20FFF752FB8F
:1010D0002E20FFF741FB06B010BD000000000140CC
:1010E0004438024000040140002002400008024051
:1010F000022180F83D1001688A6802F00702062A82
:1011000003D00A6842F001020A60012180F83D1014
:101110000020704770B5044694F83C00012818D0B0
:10112000012584F83C50022084F83D002068826844
:1011300022F0770222F47F4282600868502832D081
:101140000EDC20284DD006DC00284AD010284DD1D6
:1011500047E0022070BD302843D0402846D136E019
:1011600060282AD0702806D0B0F5805F3ED0B0F558
:10117000005F3BD10BE0CB684A688968206801F0CA
:1011800020FA2068816841F0770181602EE0CB6809
:101190004A688968206801F014FA2068816841F47F
:1011A0008041816022E0CA684968206801F0F8FA4D
:1011B0005021206801F010FA18E0CA6849682068D8
:1011C00001F048FB6021206801F006FA0EE0CA68D1
:1011D0004968206801F0E4FA4021206801F0FCF938
:1011E00004E022680146104601F0F6F984F83D500B
:1011F000002084F83C0070BD70B50546FE492868A3
:1012000088427DD1FD480078012802D002281ED1F5
:101210001EE00021FA4800F05CFDFA49086000BFBA
:10122000F7480068006A4FF6F5710840F44909680C
:101230000862F3480068006A40F00200F04909685B
:10124000086200BFED480078401CEC4908709AE045
:101250000021EB4800F03DFDEA4948600021E848E4
:1012600000F043FBE7484068E6490968884206D930
:10127000E4484068E3490968401AE3490860E348E4
:101280000088E1490968884203D2DF480088DF49C5
:101290000880DE484088DC490968884203D9DA487A
:1012A0000088DA494880D9480088D8494988401AD6
:1012B0004FF4FA7191FBF0F0D4494988D24A128870
:1012C000511A484300F21450D1490880084600885A
:1012D000D04909684863CE480088CE4909688863C8
:1012E000C94804680A20B4FBF0F100FB114030301B
:1012F000C949C8700A20B4FBF0F4B4FBF0F100E077
:1013000042E000FB11403030C34988700A20B4FB32
:10131000F0F4B4FBF0F100FB11403030BE494870EE
:101320000A20B4FBF0F4B4FBF0F100FB11403030C4
:10133000B94908700A20B4FBF0F44FF4807304221A
:10134000B64800F07BFD4FF480730222B4A1B3488D
:1013500000F074FD00BFAA480068006A4FF6F571FE
:101360000840A74909680862A5480068006AA449BE
:101370000968086200BF0021A14800F087FA012037
:101380009E49087000BF00BFA649286888427DD1E9
:10139000A5480078012802D002281ED11EE00021B5
:1013A000A24800F096FC9749086000BF9F4800687B
:1013B000006A4FF6F57108409C49096808629B482D
:1013C0000068006A40F0020098490968086200BF9E
:1013D00095480078401C9449087085E100219348A5
:1013E00000F077FC874948600021904800F07DFAC2
:1013F0008448406883490968884206D98148406822
:1014000080490968401A8A49086089480068B0F52F
:10141000E16F04D94FF4E1608549086008E0844831
:101420000068B0F5966F03D24FF49660804908606B
:10143000804800887E490968884203D27C48008839
:101440007C4908807B48408879490968884203D9EB
:1014500077480088774948807648008875494988E8
:10146000411A74484088724A1268101A4FF4FA728E
:101470005043B0FBF1F000F214506F490880084669
:1014800000886A490968C8636B4800E02DE100885C
:10149000604909688863684804880A20B4FBF0F151
:1014A00000FB114030305C49C8700A20B4FBF0F4F6
:1014B000B4FBF0F100FB11403030574988700A202E
:1014C000B4FBF0F4B4FBF0F100FB114030305249B2
:1014D00048700A20B4FBF0F4B4FBF0F100FB1140BB
:1014E00030304D4908700A20B4FBF0F04FF480739F
:1014F00004224A4800F0A2FC4FF4807304224FA15A
:10150000464800F09BFC4B4844880A20B4FBF0F1AD
:1015100000FB114030304049C8700A20B4FBF0F4A1
:10152000B4FBF0F100FB114030303B4988700A20D9
:10153000B4FBF0F4B4FBF0F100FB1140303036495D
:1015400048700A20B4FBF0F4B4FBF0F100FB11404A
:101550003030314908700A20B4FBF0F04FF480734A
:1015600004222E4800F06AFC4FF48073042233A159
:101570002A4800F063FC2F4804880A20B4FBF0F1ED
:1015800000FB114030302449C8700A20B4FBF0F44D
:10159000B4FBF0F100FB114030301F4988700A2085
:1015A000B4FBF0F4B4FBF0F100FB114030301A4909
:1015B00048700A20B4FBF0F4B4FBF0F100FB1140DA
:1015C0003030154908700A20B4FBF0F04FF48073F6
:1015D0000422124800F032FC4FF48073042217A159
:1015E0000E4800F02BFC124804680A20B4FBF0F10E
:1015F00000FB1140303025E00018004008000020BA
:10160000BC00002030000020100000201800002046
:101610001C0000203C00002003000020FC000020F3
:101620000D0A000000040140070000207C0000209B
:101630000C000020140000201E000020202020208C
:10164000000000002949C8700A20B4FBF0F4B4FB84
:10165000F0F100FB11403030244988700A20B4FBBF
:10166000F0F4B4FBF0F100FB114030301F4948703A
:101670000A20B4FBF0F4B4FBF0F100FB1140303071
:101680001A4908700A20B4FBF0F44FF48073042266
:10169000174800F0D3FB4FF480730422AFF26401CB
:1016A000134800F0CBFB4FF480730222AFF290019D
:1016B0000F4800F0C3FB00BF0E480068006A4FF6F9
:1016C000F57108400B49096808620A480068006A19
:1016D00008490968086200BF0021064800F0D6F8F2
:1016E00001200549087000BF00BF70BD0300002045
:1016F000FC0000207C0000200700002070B504469C
:101700000D4694F83C00012821D0012684F83C6065
:10171000022084F83D00E2B1042A2BD0082A3BD0F5
:10172000EB686A682968206801F0E4F82068C169FC
:1017300021F44061C1612068C169AA6841EA0221BF
:10174000C16184F83D60002084F83C0070BD022037
:1017500070BDEB686A682968206801F034F8206879
:10176000816921F00C01816120688169AA681143B7
:101770008161E6E7EB686A682968206801F07CF817
:101780002068816921F44061816120688169AA68CB
:1017900041EA02218161D4E7EB686A682968206820
:1017A00001F08AF82068C16921F00C01C16120684C
:1017B000C169AA681143C161C3E710B50446002C92
:1017C00003D094F83D0010B107E0012010BD0020C7
:1017D00084F83C00204600F00DF8022084F83D001B
:1017E000211D206800F078FE012084F83D000020D3
:1017F00010BD000010B586B00446142101A8FEF704
:10180000AAFD1F492068884237D100BF0020009000
:101810001C48006840F040001A490860084600680B
:1018200000F04000009000BF00BF00BF002000900B
:1018300014481038006840F002001249103908605E
:101840000846006800F00200009000BF00BF4FF49F
:101850004040019002200290039000200490092053
:10186000059001A90848FEF7F3FD002211462B2040
:10187000FEF780FF2B20FEF76FFF06B010BD0000C3
:1018800000180040403802400004024010B50446F1
:101890000029226806D0042909D008290CD00C2977
:1018A00013D10EE0D06840F00200D0600DE0D068A7
:1018B00040F00400D06008E0D06840F00800D0603C
:1018C00003E0D06840F01000D0600122206800F0F2
:1018D00069FE2068816801F00701062903D00168CC
:1018E00041F001010160002010BD10B5044600293F
:1018F000226806D0042909D008290CD00C2913D15C
:101900000EE0D06820F00200D0600DE0D06820F03A
:101910000400D06008E0D06820F00800D06003E048
:10192000D06820F01000D0600022206800F03AFE5D
:101930002068016A41F21112114207D1016A921026
:10194000114203D1016821F001010160002010BDA6
:1019500070B50446206801694FF0000511F0020FD0
:1019600017D0C16811F0020F13D0E91E01610120E8
:1019700020772068806910F0030F03D02046FFF71E
:101980003BFC05E0204600F0F5F8204600F07EF92B
:1019900025772068016911F0040F18D0C16811F093
:1019A000040F14D06FF00401016102202077206839
:1019B000806910F4407F03D02046FFF71DFC05E04E
:1019C000204600F0D7F8204600F060F9257720681F
:1019D000016911F0080F18D0C16811F0080F14D078
:1019E0006FF008010161042020772068C06910F0C1
:1019F000030F03D02046FFF7FFFB05E0204600F071
:101A0000B9F8204600F042F925772068016911F005
:101A1000100F18D0C16811F0100F14D06FF0100122
:101A20000161082020772068C06910F4407F03D04E
:101A30002046FFF7E1FB05E0204600F09BF820463A
:101A400000F024F925772068016911F0010F09D011
:101A5000C16811F0010F05D06FF00101016120464E
:101A600000F036F92068016911F0800F09D0C168D3
:101A700011F0800F05D06FF0800101612046FFF763
:101A800007FA2068016911F0400F09D0C16811F010
:101A9000400F05D06FF040010161204600F02FF9A2
:101AA0002068016911F0200F0BD0C16811F0200FE0
:101AB00007D06FF0200101612046BDE87040FFF7BC
:101AC000E8B970BD10B586B00446142101A8FEF730
:101AD00042FC2349206888421ED100BF00200090AC
:101AE0002048006840F010001E4908600846006861
:101AF00000F01000009000BF00BF4FF4D4400190F0
:101B0000022002900020039004900120059001A97A
:101B10001548FEF79DFC20E01449206888421CD13E
:101B200000BF002000900F48006840F480700D490D
:101B300008600846006800F48070009000BF00BF95
:101B40008020019002200290039000200490032046
:101B5000059001A90648FEF77BFC06B010BD000009
:101B600000000140303802400010024000040140F3
:101B700000200240704770B504460D4694F83C00C2
:101B800001280DD0012684F83C60022084F83D0035
:101B900042B1042A1AD0082A2DD00C2A53D13EE093
:101BA000022070BD2946206800F01EFD2068816972
:101BB00041F0080181612068816921F0040181619F
:101BC000206881692A69114381613CE029462068C7
:101BD00000F042FD2068816941F400618161206864
:101BE000816921F480618161206881692A6941EA03
:101BF0000221816127E02946206800F069FD206804
:101C0000C16941F00801C1612068C16921F0040186
:101C1000C1612068C1692A691143C16113E0294685
:101C2000206800F091FD2068C16941F40061C16144
:101C30002068C16921F48061C1612068C1692A6995
:101C400041EA0221C16184F83D60002084F83C0033
:101C500070BD10B50446002C03D094F83D0010B1BF
:101C600007E0012010BD002084F83C00204600F071
:101C70000CF8022084F83D00211D206800F02CFCA7
:101C8000012084F83D00002010BD7047704710B55A
:101C900004460122206800F085FC2168A1F1804003
:101CA000B0F5803004D0A1F18040B0F5823003D18E
:101CB000486C40F4004048642068816801F00701E6
:101CC000062903D0016841F001010160002010BD28
:101CD000704702460020002908D0042909D00829AD
:101CE0000AD00C2901D11068006C70471068406B55
:101CF00070471068806B70471068C06B7047704702
:101D000070B50446002C04D094F83900002510B1B9
:101D100006E0012070BD84F83850204600F022F81B
:101D2000242084F839002068C16821F40051C16082
:101D3000204600F0FFFD2068016921F49041016117
:101D40002068416921F02A0141612068C16841F49D
:101D50000051C160E563202084F8390084F83A001E
:101D6000002070BD10B586B00446142101A8FEF70E
:101D7000F2FA2E492068884255D100BF0020009019
:101D80002B48006840F010002949086008460068A8
:101D900000F01000009000BF00BF00BF00200090C6
:101DA00023481438006840F00200214914390860C3
:101DB0000846006800F00200009000BF00BF00BFAE
:101DC000002000900846006840F0010008600846C6
:101DD000006800F00100009000BF00BF802001906B
:101DE0000220029001200390032004900720059018
:101DF00001A91048FEF72CFB4FF40070019002205F
:101E0000029001200390032004900720059001A96F
:101E10000948FEF71DFB002211462520FEF7AAFC0B
:101E20002520FEF799FC06B010BD0000001001400F
:101E30004438024000040240000002402DE9F8430B
:101E400004460D4691461E4694F83900202802D0DB
:101E50000220BDE8F8834DB3B9F1000F26D094F805
:101E60003800012825D0012084F838000027E763D6
:101E7000212084F83900FEF701FC8046A4F8249064
:101E8000A4F82690E08CA0B3E08C401EE084A0680B
:101E9000B0F5805F10D04346002280212046009696
:101EA00000F0E8FEF0B10320BDE8F8830120BDE8B2
:101EB000F8830220BDE8F8834346002280212046B3
:101EC000009600F0D7FE10B10320BDE8F883288803
:101ED0002168C0F308004860206908B16D1C05E066
:101EE000AD1C03E0216815F8010B4860E08C002868
:101EF000CAD14346002240212046009600F0BAFE97
:101F000010B10320BDE8F883202084F8390084F85C
:101F100038700020BDE8F88300BFFEE700B587B049
:101F2000142102A8FEF717FA00BF002001904448D0
:101F3000006840F00100424908600846006800F06F
:101F40000100019000BF00BF00BF002001900846C3
:101F5000006840F0020008600846006800F00200D7
:101F6000019000BF00BF00BF00200190084600683C
:101F700040F0080008600846006800F00800019082
:101F800000BF00BF00BF002001900846006840F479
:101F9000807008600846006800F48070019000BFFF
:101FA00000BF00BF002001900846006840F080009C
:101FB00008600846006800F08000019000BF00BF84
:101FC00000BF002001900846006840F0040008604F
:101FD0000846006800F00400019000BF00BF00BF89
:101FE000002001900846006840F010000860084694
:101FF000006800F01000019000BF00BF01224FF404
:10200000E0511048FEF732FB60200290022003905E
:1020100000200490032005900720069002A90A489A
:10202000FEF716FA4FF4E05002900120039004905E
:102030000220059002A90348FEF70AFA07B000BD86
:1020400030380240001C0240000C02401FB5002046
:102050000090019002900390164817490860A7204D
:1020600048600021144881604FF6FF71C160002173
:10207000016180218161FFF7A0FB08B1FEF7D2F971
:102080000020009001200190002002900820039081
:10209000002269460848FFF731FB08B1FEF7C2F994
:1020A000042269460448FFF729FB08B1FEF7BAF994
:1020B0001FBD000000180040BC00002000B595B016
:1020C000002011901290139014900F9010901C21EA
:1020D00008A8FEF740F920216846FEF73CF9384889
:1020E00038490860A720486000213648816044F6DE
:1020F0001F61C1600021016141618161FEF724FF20
:1021000008B1FEF78FF94FF48050119011A92D48B6
:10211000FFF700F808B1FEF785F92A48FFF799FDA7
:1021200008B1FEF77FF900200F9010900FA9254805
:10213000FEF7E3FE08B1FEF775F9602008904FF452
:10214000FA60099000200A900B900C900D900E9070
:10215000002208A91B48FFF70EFD08B1FEF762F93F
:10216000042208A91748FFF706FD08B1FEF75AF93F
:10217000082208A91348FFF7FEFC08B1FEF752F940
:102180000C2208A90F48FFF7F6FC08B1FEF74AF940
:102190000020009001900290039004904FF40050B2
:1021A00005900020079069460648FEF773FE08B1C7
:1021B000FEF738F90348FFF785FC15B000BD0000B5
:1021C000000001403C00002000B599B000201590AF
:1021D000169017901890139014900F9010901190E3
:1021E00012901C2108A8FEF7B6F820216846FEF7D9
:1021F000B2F83C483C490860A720486000213A48B2
:10220000816044F61F61C1600021016108214161C4
:1022100080218161FEF798FE08B1FEF703F94FF4C3
:102220008050159015A93048FEF774FF08B1FEF7ED
:10223000F9F82D48FFF7C1FA08B1FEF7F3F82A487C
:10224000FFF707FD08B1FEF7EDF80020139014909A
:1022500013A92548FEF751FE08B1FEF7E3F8002068
:102260000F90012010900020119008201290002261
:102270000FA91D48FFF742FA08B1FEF7D3F8042270
:102280000FA91948FFF73AFA08B1FEF7CBF860201A
:1022900008904FF4FA60099000200A900B900C907F
:1022A0000D900E90082208A90F48FFF764FC08B1B2
:1022B000FEF7B8F80020009001900290039004907F
:1022C0004FF4005005900020079069460648FEF73D
:1022D000E1FD08B1FEF7A6F80348FFF7F3FB19B0DC
:1022E00000BD0000000401407C00002010B50B4838
:1022F0000B4908604FF4E1304860002108488160D4
:10230000C16001610C21416100218161C161FFF760
:10231000F7FC08B1FEF786F810BD00000010014080
:10232000FC00002000BFFEE770477047704710B503
:10233000FEF7AAF910BD000000B593B0302107A840
:10234000FEF709F8142102A8FEF705F800BF0020E7
:1023500001902448006840F08050224908600846F7
:10236000006800F08050019000BF00BF00BF002057
:1023700001901D48006840F480401B4908600846F1
:10238000006800F48040019000BF00BF012007906A
:102390000004089002200D9041050E9106210F9136
:1023A000A8211091022111910421129107A8FEF792
:1023B0003FFB08B1FEF736F80F2002900220039091
:1023C000002004904FF4A05005904FF480500690E8
:1023D000052102A8FEF714FA08B1FEF723F813B09E
:1023E00000BD000040380240007000401448006802
:1023F00040F47000124908601248006840F0010083
:102400001049086000200F49083108600D48006835
:102410000D4908400B4908600C48091D0860081F59
:10242000006820F48020091F0860002005490C3155
:1024300008604FF000600249803908607047000072
:1024400088ED00E000380240FFFFF6FE1030002467
:1024500010B50248FFF77CFA10BD00003C000020D8
:1024600010B50248FFF774FA10BD00003C000020D0
:1024700010B50248FFF76CFA10BD00003C000020C8
:1024800010B50248FFF764FA10BD00003C000020C0
:1024900010B50348FFF75CFA0248FFF759FA10BD80
:1024A0007C000020BC00002010B50248FFF750FA65
:1024B00010BD00007C00002010B50248FFF748FA6C
:1024C00010BD00007C00002010B50248FFF740FA64
:1024D00010BD00007C000020F0B402682C4B2D4C95
:1024E0002D4D2E4EDFF8B8C098420AD0B0F1804F83
:1024F00007D0A04205D0A84203D0B04201D0604529
:1025000003D122F070024F683A43984228D0B0F1CC
:10251000804F25D0A04223D0A84221D0B0421FD066
:1025200060451DD0A0F18044B4F5A03418D0A0F1CE
:102530008044B4F5A23413D0A0F18044B4F5A4349F
:102540000ED0A0F18044B4F5C05409D0A0F180446D
:10255000B4F5E05404D0A0F18044B4F5005403D1A4
:1025600022F44072CC6822434C6922F0800222435C
:1025700002608A68C2620A688262984201D060453D
:1025800001D10969016301214161F0BC704700007C
:10259000000001400004004000080040000C004022
:1025A0000004014001F01F0101238B40D0F820C03E
:1025B0002CEA03030362036A02FA01F11943016280
:1025C0007047D0F808C02CF47F4C42EA0322114334
:1025D00041EA0C0181607047826822F07002114369
:1025E00041F007018160704770B4026A22F0010275
:1025F0000262036A4268D0F818C02CF0700C2CF00C
:10260000030C0C6844EA0C0C23F002038C6823438F
:102610000F4C104DA04201D0A84205D123F0080371
:10262000CE68334323F00403A04201D0A84207D16F
:1026300022F4807222F400724C6922438C69224396
:102640004260C0F818C049684163036270BC7047BB
:10265000000001400004014070B4026A22F0100240
:102660000262036A4268D0F818C02CF4E04C2CF4E3
:10267000407C0C684CEA042C23F020038C6843EA6D
:102680000413114C114DA04201D0A84206D123F0F1
:102690008003CE6843EA061323F04003A04201D032
:1026A000A84209D122F4806222F400624C6942EA15
:1026B00084028C6942EA84024260C0F818C049680A
:1026C0008163036270BC7047000001400004014058
:1026D00070B4026A22F480720262036A4268D0F81F
:1026E0001CC02CF0700C2CF0030C0C6844EA0C0C91
:1026F00023F400738C6843EA0423114C114DA0426B
:1027000001D0A84206D123F40063CE6843EA062331
:1027100023F48063A04201D0A84209D122F4805260
:1027200022F400524C6942EA04128C6942EA041213
:102730004260C0F81CC04968C163036270BC704746
:10274000000001400004014010B4026A22F48052EB
:102750000262D0F820C04268C36923F4E04323F446
:1027600040730C6843EA04232CF4005C8C684CEA48
:10277000043CA0F18044B4F5803404D0A0F180443E
:10278000B4F5823404D122F480424C6942EA8412C6
:102790004260C36149680164C0F820C010BC704742
:1027A000036AD0F820C02CF0010CC0F820C0D0F88B
:1027B00018C02CF0F00C4CEA021223F00A03194363
:1027C00082610162704730B4D0F820C02CF0010C57
:1027D000C0F820C0D0F818C0046AA0F18045B5F553
:1027E000803532D0B0F1804F2FD0A0F18045B5F5C3
:1027F00080652AD0A0F18045B5F5006525D0A0F10F
:102800008045B5F5406520D0A0F18045B5F582350D
:102810001BD0A0F18045B5F5A03516D0A0F18045BC
:10282000B5F5C05511D04CF0010222F0F0024FF086
:10283000F00C0CEA03131A4324F00A0301F00A0116
:1028400019438261016230BC70472CF0030C4CEAE2
:102850000202EAE7036A23F010030362D0F818C00B
:10286000036A2CF4704C4CEA023223F0A00343EAD2
:10287000011182610162704710B4D0F820C02CF0C1
:10288000100CC0F820C08469D0F820C024F4407433
:1028900044EA022222F470424FF4704404EA033303
:1028A0001A432CF0A0034FF0A00C0CEA01111943BD
:1028B0008261016210BC704710B4D0F820C02CF4C3
:1028C000807CC0F820C0C469D0F820C024F0030484
:1028D000224322F0F002F02404EA03131A432CF4FA
:1028E00020634FF4206C0CEA01211943C26101629C
:1028F00010BC704710B4D0F820C02CF4805CC0F835
:1029000020C0C469D0F820C024F4407444EA0222F4
:1029100022F470424FF4704404EA03331A432CF457
:1029200020434FF4204C0CEA01311943C26101628B
:1029300010BC70472DE9F041044620680169E26847
:1029400021F44051114301612169A068E269084303
:102950006169114301432068C26822F4037222F4C2
:1029600014421143C16020684169A26921F4407199
:1029700011434161E069BC4ABC49BD4D3226B0F506
:10298000004F5ED02068884202D0904240F0128111
:10299000FEF706F800EBC00101EB0010616889004A
:1029A000B0FBF1F7FDF7FCFF00EBC00101EB0010FD
:1029B00061688900B0FBF1F0A5FB001040096FF0E1
:1029C0001801484307EB800006EB0010A5FB001040
:1029D000400900F0F007FDF7E3FF00EBC00101EB59
:1029E000001061688900B0FBF1F0A5FB0010400900
:1029F00007EB0017FDF7D4FF00EBC00101EB00105F
:102A000061688900B0FBF1F8FDF7CAFF00EBC00177
:102A100001EB001061688900B0FBF1F0A5FB00102C
:102A200040096FF01801484308EB800006EB0010E6
:102A3000A5FB00102168C0F3431038448860BDE84E
:102A4000F0812068884201D0904259D1FDF7A8FF5B
:102A500000EBC00101EB001061684900B0FBF1F030
:102A6000A5FB001040090701FDF79AFF00EBC0012C
:102A700001EB001061684900B0FBF1F8FDF790FF31
:102A800000EBC00101EB001061684900B0FBF1F000
:102A9000A5FB001040096FF01801484308EB8000C7
:102AA00006EBC000A5FB0010400900F0F80007EBA2
:102AB0004007FDF775FF00EBC00101EB00106168F6
:102AC0004900B0FBF1F8FDF76BFF00EBC00101EB33
:102AD000001061684900B0FBF1F0A5FB001040094F
:102AE0006FF01801484308EB800006EBC000A5FB1F
:102AF00000102168C0F3421038448860BDE8F081BE
:102B0000FDF73EFF00EBC00101EB001061684900DA
:102B1000B0FBF1F0A5FB001040090701FDF730FF05
:102B200000EBC00101EB001061684900B0FBF1F857
:102B3000FDF726FF00EBC00101EB001061684900C2
:102B4000B0FBF1F0A5FB001040096FF018014843FD
:102B500008EB800006EBC000A5FB0010400900F068
:102B6000F80007EB4007FDF70BFF00EBC00101EB9E
:102B7000001061684900B0FBF1F8FDF701FF00EBC0
:102B8000C00101EB001061684900B0FBF1F0A5FB4A
:102B9000001040096FF01801484308EB800006EB75
:102BA000C000A5FB00102168C0F3421038448860C3
:102BB000BDE8F081FDF7E4FE00EBC00101EB001081
:102BC00061688900B0FBF1F7FDF7DAFE00EBC001A8
:102BD00001EB001061688900B0FBF1F0A5FB00106B
:102BE00040096FF01801484307EB800006EB001026
:102BF000A5FB0010400900F0F007FDF7C1FE00EB57
:102C0000C00101EB001061688900B0FBF1F0A5FB89
:102C10000010400907EB0017FDF7B2FE00EBC00102
:102C200001EB001061688900B0FBF1F8FDF7A8FE28
:102C300000EBC00101EB001061688900B0FBF1F00E
:102C4000A5FB001040096FF01801484308EB800015
:102C500006EB0010A5FB00102168C0F343103844B8
:102C60008860BDE8F08100000014014000100140C0
:102C70001F85EB512DE9F0410446069D8846174615
:102C80001E462068006838EA000020D00020B842C4
:102C900027D1B5F1FF3F1CD025B1FDF7EFFC801B1C
:102CA000A84216D92068C16821F4D071C16020689B
:102CB000416921F001014161202084F8390084F844
:102CC0003A00002084F838000320BDE8F08101209C
:102CD000DDE72068006838EA000005D00020B8422F
:102CE000D7D00020BDE8F0810120F8E738B52748AB
:102CF0000068006800F02000002834D023480068F5
:102D00004068C0B200909DF80000622807D1002002
:102D10001F4908701F4908701F49087034E09DF86A
:102D20000000652803D101201B4908702CE09DF8A4
:102D30000030A3F1300201200121154B1B785B1CF0
:102D4000134C237000BF03E001EB81035900401CCA
:102D50000F4B1B789842F7DB0E4B1B7801FB0233BD
:102D60000C4C237010E009480068006800F0100067
:102D700050B1064800684068C0B2009000224FF48D
:102D800080510648FDF772FC38BD0000FC000020B1
:102D9000000000200100002002000020001C024072
:102DA00000BFFEE7FDF778FCFFF7C6FAFFF7B6F8BD
:102DB000FFF79CFAFFF708FAFFF748F9FFF77EF9EB
:102DC0003A48FEF795F908213848FEF760FF384881
:102DD000FEF78EF900213648FEF759FF04213448EA
:102DE000FEF755FF08213248FEF751FF0C2130480D
:102DF000FEF74DFF00224FF480512E48FDF736FCC0
:102E000000224FF400612B48FDF730FC00224FF404
:102E100080612848FDF72AFC27480068C06840F018
:102E2000200025490968C86023480068C06840F050
:102E3000100021490968C86000BF1C480068006A8A
:102E40004FF6F5710840194909680862174800688B
:102E5000006A16490968086200BF00211348FEF79E
:102E600015FD00BF15480068006A4FF6F57108406F
:102E700012490968086211480068006A0F49096828
:102E8000086200BF00210D48FEF700FD01200C493B
:102E900008700C49087008E06420FDF7C5FA642347
:102EA0000C2209A10448FEF7C9FFF5E77C000020C9
:102EB0003C000020001C0240FC000020BC00002060
:102EC00007000020080000207368646B73646A6B5D
:102ED000730D0A004FF04070E1EE100A70470000D9
:102EE00000000000000001020304060708090000BA
:102EF0000000010203040000182F00080000002059
:102F000030000000C4010008482F000830000020F5
:102F100070070000E0010008000000000000000051
:102F20000000000000000000000000000000D007CA
:102F30000000D007000000000024F40001000000A1
:082F4000100000000000000079
:040000050800018965
:00000001FF
